:100000000C94A5130C94D6130C94D6130C94D613FD
:100010000C94D6130C94D6130C94D6130C94D613BC
:100020000C94D6130C94D6130C94D6130C94D613AC
:100030000C94D6130C94D6130C94D6130C94D6139C
:100040000C94D6130C943C8D0C94D6130C94D613AC
:100050000C94D6130C94D6130C944FD00C94D14915
:100060000C94D6130C94B53B0C94D6130C94D61365
:100070000C94D6130C94D6130C94D6130C94D6135C
:100080000C94D6130C94D6130C94D6130C94D6134C
:100090000C94D6130C94D6130C94D6130C94D6133C
:1000A0000C94D6130C94D6130C94D6130C94D6132C
:1000B0000C94D6130C94D6130C94D6130C94D6131C
:1000C0000C94D6130C94D6130C94D6130C94D6130C
:1000D0000C94D6130C94D6130C94D6130C94D613FC
:1000E0000C94D613C047C347B247B647BC47FA473C
:1000F000C747CB47D147D547D947DF47E347E7470E
:10010000FA47ED47F147F547ED48F248F74801490E
:100110000B49844915491D4925492F493949434906
:1001200052495C498449664970497A49B3D0C3D081
:10013000E2D0F2D00DD112D115D11AD11DD122D1D8
:1001400025D12AD134D1084AD73B3BCE016E84BC9D
:10015000BFFDC12F3D6C74319ABD56833DDA3D0021
:10016000C77F11BED9E4BB4C3E916BAAAABE00006A
:1001700000803F05A84CCDB2D44EB93836A9020C48
:1001800050B9918688083CA6AAAA2ABE0000008021
:100190003F00434F4D4D554E49434154494F4E004A
:1001A00044525952554E004552524F525300494EF7
:1001B000464F004543484F0047322F473320626186
:1001C0006420706172616D65746572730A00536CAE
:1001D0006565702E2E2E000000000000000000005B
:1001E000009643206C6576656C5F6265645F76613E
:1001F0006C75653A0020453A00205A3A0020593A79
:1002000000583A0047333000473238004732380050
:1002100047323900473238004D38383800473238D5
:1002200000473239004732380047323800416E7992
:1002300063756269632072656164792E005265732B
:10024000756D696E67207072696E740057616974AC
:1002500020666F7220757365722E2E2E004E6F20F1
:100260006D6F76652E00456E642066696C65206C46
:100270006973740A00426567696E2066696C65205F
:100280006C6973740A005344207072696E74696EED
:1002900067206279746520004E6F7420534420708B
:1002A00072696E74696E670A0046696C65206465E0
:1002B0006C657465643A0044656C6574696F6E20A2
:1002C0006661696C65642C2046696C653A20006F34
:1002D00070656E206661696C65642C2046696C658A
:1002E0003A20002569730025696D20256973002572
:1002F00069682025696D20256973002569642025BA
:1003000069682025696D2025697300256979202594
:100310006964202569682025696D2025697300506E
:1003200072696E742074696D653A200050726F7442
:1003300065637465642050696E0A00506C65617372
:100340006520736574205A5F6F66667365743A0042
:1003500048656174696E672E2E2E00416E79637553
:100360006269632072656164792E00B301AE01A7F2
:1003700001A00192016F66660044454255473A006C
:100380004B494C4C45442E20006F6B00486561740E
:10039000696E6720646F6E652E003F0A0020573A31
:1003A0000048656174696E672E2E2E00416E796378
:1003B000756269632072656164792E00426564200C
:1003C000646F6E652E003F0A0020573A0042656454
:1003D0002048656174696E672E00416E79637562AD
:1003E0006963204F66662E004649524D574152457B
:1003F0005F4E414D453A4D61726C696E20312E3130
:100400002E30416E79637562696320534F555243B4
:10041000455F434F44455F55524C3A2050524F542C
:100420004F434F4C5F56455253494F4E3A312E3051
:10043000204D414348494E455F545950453A416E1D
:100440007963756269632045585452554445525F3B
:10045000434F554E543A3120555549443A636564EB
:1004600065326132662D343161322D343734382DA6
:10047000396231322D63353563363266333637664D
:10048000660A007A5F6D61783A20007A5F6D696E66
:100490003A2000795F6D61783A2000785F6D61786D
:1004A0003A20005265706F7274696E6720656E64E1
:1004B00073746F70207374617475730A005365747C
:1004C00074696E672054726176656C204163636560
:1004D0006C65726174696F6E3A200053657474695B
:1004E0006E67205265747261637420416363656C4A
:1004F00065726174696F6E3A200053657474696E39
:1005000067205072696E7420416363656C65726127
:1005100074696F6E3A200053657474696E67205079
:1005200072696E7420616E642054726176656C200D
:10053000416363656C65726174696F6E3A20002077
:10054000643A0020693A0020703A003A20007A5F4D
:100550006D61783A20007A5F6D696E3A20005A200A
:100560004F6666736574004E6F2063617365206C1F
:10057000696768740A004163746976652045787418
:1005800072756465723A2000556E6B6E6F776E20DF
:10059000636F6D6D616E643A2022004E6F204C696E
:1005A0006E65204E756D6265722077697468206390
:1005B0006865636B73756D2C204C617374204C6996
:1005C0006E653A20004B494C4C45442E2000535454
:1005D0004F505045442E20005072696E7465722051
:1005E00073746F707065642064756520746F206526
:1005F00072726F72732E2046697820746865206568
:1006000072726F7220616E6420757365204D393986
:100610003920746F20726573746172742E202854AF
:10062000656D70657261747572652069732072659D
:100630007365742E20536574206974206166746537
:10064000722072657374617274696E67290A004E54
:100650006F20436865636B73756D207769746820DC
:100660006C696E65206E756D6265722C204C6173CD
:1006700074204C696E653A2000636865636B73751E
:100680006D206D69736D617463682C204C617374A7
:10069000204C696E653A20004C696E65204E756D80
:1006A000626572206973206E6F74204C61737420D0
:1006B0004C696E65204E756D6265722B312C204C35
:1006C000617374204C696E653A20004D3131300001
:1006D0004D3331004D383420582059205A204500E0
:1006E00053442072656164206572726F720A00441F
:1006F0006F6E65207072696E74696E672066696CD2
:10070000650A0020496E76616C69642065787472B0
:100710007564657220000000B4420000B44200001D
:1007200096430000B4C20000B4C200000000206480
:10073000667361663A2000205A3A200020593A2018
:100740000042656420583A2000203D3D3D3D002098
:100750002020200042696C696E656172204C6576CC
:10076000656C696E6720477269643A0A20002070E0
:100770006F736974696F6E206F7574206F66207275
:10078000616E67652E0A003F50726F6265200047F8
:100790003239206E6577205A5F6F66667365743AEA
:1007A0000028422961636B00284629726F6E74002D
:1007B0002852296967687400284C296566740052BC
:1007C000756E6E696E6720696E204452592D5255C0
:1007D0004E206D6F64650A00473239204175746F91
:1007E00020426564204C6576656C696E670A003F3F
:1007F0002856296572626F7365204C6576656C209A
:10080000697320696D706C61757369626C6520280D
:10081000302D34292E0A00473330206E6577205A58
:100820005F6F66667365743A00506C65617365202E
:10083000736574205A5F6F66667365743A00205A58
:100840005F4D41585F504F533A2000206C657665EC
:100850006C5F6265645F763A2000205A3A2000207F
:10086000593A200042656420583A2000436172647E
:100870002072656D6F766564004361726420696EF5
:100880007365727465640000002100240027002A4B
:10089000002D003000330001010000040107010AAF
:1008A0000100002200250028002B002E003100341A
:1008B0000002010000050108010B010000200023D7
:1008C00000260029002C002F003200000100000348
:1008D00001060109010505050507050808080802C4
:1008E0000202020A0A0808040404040101010101C9
:1008F0000101010303030303030303040707070CB8
:100900000C0C0C0C0C0C0C0202020206060606066D
:100910000606060B0B0B0B0B0B0B0B01021020201A
:100920000808102040102040800201020108040243
:1009300001010204081020408080402010080402B9
:100940000180040201804020100804020108040212
:100950000101020408102040800102040810204018
:100960008000000A0B02090C0D0E080703040100A9
:100970000000000000000000000000000000000077
:100980000000000000000000000000000012111034
:100990000000000000000000000000000000000057
:1009A000000000000000005072656865617420500E
:1009B0004C41204265640050726568656174205046
:1009C0004C410050726570617265004D35303000E9
:1009D00053746F7265004D3835372046005A202D0C
:1009E00020302E31004D3835372041005A202B2041
:1009F000302E310050726570617265204C657665ED
:100A00006C696E6700473336004D656173757265BA
:100A1000205A20506F73004D61696E0047333300D8
:100A200053746F7265005A204F6666736574005A7E
:100A3000204F6666736574004E6577205A204F66B6
:100A400066736574004E6577205A204F666673653D
:100A5000740047333500426567696E204C657665E2
:100A60006C696E67004175746F204C6576656C69C2
:100A70006E6720426564005072656865617420414C
:100A8000425320426564005072656865617420417C
:100A90004253005072657061726500436F6F6C6401
:100AA0006F776E0050726568656174204142530033
:100AB0005072656865617420504C41004D383400B7
:100AC00044697361626C65207374657070657273DC
:100AD000004D6F76652061786973004732380041B8
:100AE00075746F20686F6D65004D61696E004D6FA4
:100AF00076652058004D6F76652059004D6F7665FC
:100B0000205A004578747275646572004578747275
:100B100075646572004D6F7665205A004D6F76657D
:100B20002059004D6F76652058004D6F7665206125
:100B300078697300454550524F4D20636865636B7B
:100B400073756D206D69736D617463680A0020624E
:100B500079746573290A002073746F726564207359
:100B6000657474696E677320726574726965766501
:100B70006420280048617264636F64656420446582
:100B80006661756C742053657474696E6773204C6C
:100B90006F616465640A0020204D383531205A00A9
:100BA0005A2D50726F6265204F66667365742028F7
:100BB0006D6D293A0A0020204D3230302044300A31
:100BC0000020204D3230302044002044697361629F
:100BD0006C65640A0046696C616D656E74207365AE
:100BE0007474696E67733A00204400204900202025
:100BF0004D3330312050005049442073657474697E
:100C00006E67733A0A002046002042002048002008
:100C1000204D3134352053004D6174657269616C2B
:100C20002068656174757020706172616D657465AE
:100C300072733A0A002043002042002041002053F2
:100C40000020520020204D363635204C0044656C83
:100C500074612073657474696E67733A204C3D64E7
:100C60006961676F6E616C5F726F642C20523D72B8
:100C700061646975732C20533D7365676D656E748F
:100C8000735F7065725F7365636F6E642C204142A1
:100C9000433D646961676F6E616C5F726F645F741E
:100CA00072696D5F746F7765725F5B3132335D0AB5
:100CB00000205A0020590020204D3636362058009A
:100CC000456E6473746F702061646A7573746D65CA
:100CD0006E7420286D6D293A0A0020204D34323080
:100CE0002053004175746F20426564204C65766521
:100CF0006C696E673A0A00205A0020590020204D86
:100D0000323036205800486F6D65206F6666736517
:100D10007420286D6D290A00204500205A002059B2
:100D20000020580020420020540020204D32303551
:100D3000205300416476616E636564207661726958
:100D400061626C65733A20533D4D696E206665653E
:100D5000647261746520286D6D2F73292C20543DB9
:100D60004D696E2074726176656C2066656564728B
:100D700061746520286D6D2F73292C20423D6D69AB
:100D80006E696D756D207365676D656E742074692D
:100D90006D6520286D73292C20583D6D6178696D33
:100DA000756D205859206A65726B20286D6D2F7300
:100DB000292C20205A3D6D6178696D756D205A206F
:100DC0006A65726B20286D6D2F73292C2020453D9C
:100DD0006D6178696D756D2045206A65726B20289C
:100DE0006D6D2F73290A0020540020520020204DE1
:100DF000323034205000416363656C657261746900
:100E00006F6E733A20503D7072696E74696E672C14
:100E100020523D7265747261637420616E64205467
:100E20003D74726176656C0A00204500205A0020EE
:100E3000590020204D3230312058004D6178696DC5
:100E4000756D20416363656C65726174696F6E20B6
:100E5000286D6D2F7332293A0A00204500205A0070
:100E600020590020204D3230332058004D617869E0
:100E70006D756D2066656564726174657320286D9B
:100E80006D2F73293A0A00204500205A002059008E
:100E900020204D39322058005374657073207065DE
:100EA0007220756E69743A0A00656E7175657565B4
:100EB000696E672022005761726E696E673A20483A
:100EC0006F6D696E672042756D7020446976697335
:100ED0006F72203C20310A000000A0400000A040BA
:100EE0000000A0400000344300003443000096435B
:100EF00001010100002110422063308440A550C64A
:100F000060E770088129914AA16BB18CC1ADD1CE47
:100F1000E1EFF13112100273325222B5529442F7CE
:100F200072D662399318837BB35AA3BDD39CC3FF97
:100F3000F3DEE36224433420040114E664C774A49E
:100F40004485546AA54BB528850995EEE5CFF5ACE7
:100F5000C58DD55336722611163006D776F66695AE
:100F600056B4465BB77AA719973887DFF7FEE79D37
:100F7000D7BCC7C448E5588668A7784008611802FE
:100F8000282338CCC9EDD98EE9AFF9488969990A87
:100F9000A92BB9F55AD44AB77A966A711A500A330E
:100FA0003A122AFDDBDCCBBFFB9EEB799B588B3BD7
:100FB000BB1AABA66C877CE44CC55C222C033C605E
:100FC0000C411CAEED8FFDECCDCDDD2AAD0BBD6827
:100FD0008D499D977EB66ED55EF44E133E322E51EE
:100FE0001E700E9FFFBEEFDDDFFCCF1BBF3AAF5977
:100FF0009F788F8891A981CAB1EBA10CD12DC14EE8
:10100000F16FE18010A100C230E32004502540467A
:10101000706760B9839893FBA3DAB33DC31CD37F99
:10102000E35EF3B1029012F322D2323542145277CA
:10103000625672EAB5CBA5A89589856EF54FE52C69
:10104000D50DC5E234C324A014810466744764241A
:10105000540544DBA7FAB79987B8975FE77EF71D79
:10106000C73CD7D326F2369106B01657667676156A
:101070004634564CD96DC90EF92FE9C899E9898AC9
:10108000B9ABA94458654806782768C018E10882BA
:1010900038A3287DCB5CDB3FEB1EFBF98BD89BBBD9
:1010A000AB9ABB754A545A376A167AF10AD01AB30A
:1010B0002A923A2EFD0FED6CDD4DCDAABD8BADE829
:1010C0009DC98D267C076C645C454CA23C832CE05A
:1010D0001CC10C1FEF3EFF5DCF7CDF9BAFBABFD9B9
:1010E0008FF89F176E367E554E745E932EB23ED1AA
:1010F0000EF01E7C3C3E5E2B3D3F2F5B5D3B2C2A61
:10110000225C005374616E64617264204465766988
:101110006174696F6E3A20002052616E67653A20F3
:1011200000204D61783A2000204D696E3A20004D34
:1011300065616E3A200046696E69736865642100D6
:101140002072616E67653A2000206D61783A200058
:10115000206D696E3A2000207369676D613A200046
:10116000206D65616E3A20003A207A3A2000206FA7
:10117000662000205A00205900205800476F696EF1
:101180006720746F3A002C200050756C6C696E6794
:1011900020706F696E7420746F776172647320635E
:1011A000656E7465723A00436C6F636B7769736543
:1011B0000A00436F756E7465722D00204469726574
:1011C0006374696F6E3A2000202020616E676C6541
:1011D0003A20005374617274696E672072616469A9
:1011E00075733A2000506F736974696F6E696E672A
:1011F000207468652070726F62652E2E2E0A003F83
:101200004E756D626572206F66206C65677320692C
:101210006E206D6F76656D656E74206E6F742070D4
:101220006C61757369626C652028302D3135292E0B
:101230000A003F2028582C5929206C6F636174697B
:101240006F6E206F757473696465206F66207072AD
:101250006F626561626C65207261646975732E0AE4
:10126000003F53616D706C652073697A65206E6F05
:101270007420706C61757369626C652028342D353B
:1012800030292E0A004D3438205A2D50726F626575
:10129000205265706561746162696C69747920546B
:1012A0006573740A003F566572626F7365204C6502
:1012B00076656C206E6F7420706C61757369626CFA
:1012C000652028302D34292E0A002042403A002083
:1012D000403A00202F0020423A00202F0020543AAC
:1012E000004D31343520533C696E6465783E206F83
:1012F0007574206F662072616E67652028302D310D
:10130000290A0020453A00205A3A0020593A00584C
:101310003A004D6F766520302E316D6D004D6F7641
:101320006520316D6D004D6F76652031306D6D003B
:101330005072657061726500526573746F726520DA
:101340006661696C73616665004C6F6164206D65F0
:101350006D6F72790053746F7265206D656D6F7279
:10136000790046696C616D656E74004D6F74696FCC
:101370006E0054656D7065726174757265004D61C3
:10138000696E005072656865617420414253206344
:101390006F6E66005072656865617420504C412024
:1013A000636F6E66005049442D44005049442D44FB
:1013B000005049442D49005049442D4900504944AA
:1013C0002D50005049442D50002002204661637486
:1013D0000020022046616374002002204D617800E5
:1013E0002002204D6178002002204D696E0020020D
:1013F000204D696E004F6666004F6E200041757487
:101400006F74656D700046616E2073706565640071
:1014100046616E20737065656400426564004265D4
:1014200064004E6F7A7A6C65004E6F7A7A6C650054
:10143000436F6E74726F6C0053746F7265206D65CC
:101440006D6F72790042656400426564004E6F7A88
:101450007A6C65004E6F7A7A6C650046616E207317
:10146000706565640046616E207370656564005444
:10147000656D70657261747572650046696C2E20C9
:101480004469612E0046696C2E204469612E004F2C
:101490006666004F6E20004520696E206D6D33003A
:1014A000436F6E74726F6C0043616E6E6F74206573
:1014B0006E746572207375626469723A2000052E3D
:1014C0002E004D61696E004B494C4C45442E200066
:1014D000202D20496E76616C696420657874727580
:1014E000646572206E756D62657220210A00414E3E
:1014F000594355424943204B4F5353454C00576580
:101500006C636F6D650057656C636F6D65002031AE
:101510002E312E30002020506C616E6E6572427547
:101520006666657242797465733A2000204672657A
:1015300065204D656D6F72793A2000436F6D70695B
:101540006C65643A204E6F7620313420323031376A
:101550000A00207C20417574686F723A2028414E41
:10156000594355424943204B4F5353454C2C20324D
:101570003031372F392F3138290A00323031362DAA
:1015800031322D30362031323A303000204C617308
:101590007420557064617465643A2000312E312ED8
:1015A000300A004D61726C696E0020536F6674776B
:1015B0006172652052657365740A00205761746317
:1015C00068646F672052657365740A002042726F09
:1015D000776E206F75742052657365740A0020451C
:1015E000787465726E616C2052657365740A005080
:1015F0006F77657255700A0073746172740A0047E0
:1016000031205A2B323000473931006572726F72C7
:101610002077726974696E6720746F2066696C65E3
:101620000A00456E6473746F707320256320256310
:1016300020256320256300205A3A0020593A0020D3
:10164000583A00656E6473746F7073206869743AF9
:101650002000446F6E6520736176696E672066694D
:101660006C652E0A004D32390025753A25303275E9
:1016700000253032753A25303275002D2D2D00535E
:1016800044005A00590058000120000120007061F8
:10169000757365004E6F205344206361726400507F
:1016A00072696E742066726F6D2053440053746FBC
:1016B00070207072696E7400526573756D6520706C
:1016C00072696E74005061757365207072696E7412
:1016D00000436F6E74726F6C004175746F204C65BF
:1016E00076656C696E672042656400507265706152
:1016F00072650054756E6500496E666F2073637283
:1017000065656E00466C6F7700466C6F77004661CA
:101710006E2073706565640046616E207370656548
:10172000640042656400426564004E6F7A7A6C65BD
:10173000004E6F7A7A6C6500537065656400537073
:10174000656564004D61696E0024F4D43050C38E29
:1017500020C2A24017828B7011127A910D816CD930
:101760000AA861E108C7586607615143061E4B5D30
:1017700005C145A7041A411104093D980371393187
:10178000034036DB0265339102D4305402802E1DB3
:1017900002632CEE01752AC501B028A00110278133
:1017A000018F2564012B244B01E0223401AC211F61
:1017B000018D200D01801FFC00841EED00971DDFB0
:1017C00000B81CD200E61BC600201BBC00641AB285
:1017D00000B219A8000A19A0006A189900D117913F
:1017E0000040178B00B516840031167E00B31579C2
:1017F000003A157300C7146F0058146A00EE1366A0
:10180000008813630025135E00C7125B006C12573B
:101810000015125400C111510070114F0021114BDD
:1018200000D61049008D10470046104400021042B7
:1018300000C00F4000800F3E00420F3C00060F3BEF
:1018400000CB0E3800930E37005C0E3500270E34A7
:1018500000F30D3200C10D3100900D3000600D2EEF
:1018600000320D2D00050D2C00D90C2B00AE0C29DB
:1018700000850C29005C0C2700350C27000E0C2677
:1018800000E80B2400C40B2400A00B23007D0B23D5
:10189000005A0B2100390B2100180B2000F80A1FF9
:1018A00000D90A1E00BB0A1E009D0A1D00800A1DE9
:1018B00000630A1C00470A1B002C0A1B00110A1AAD
:1018C00000F7091A00DD091900C4091900AB09194C
:1018D00000920917007B091800630917004C0916CC
:1018E0000036091600200916000A091500F508152A
:1018F00000E0081400CC081400B8081400A4081470
:1019000000900813007D0812006B0813005808129D
:1019100000460812003408110023081100120811B3
:101920000001081100F0071000E0071000D00710B8
:1019300000C0071000B0070F00A107100091070EAC
:101940000083070F0074070F0065070E0057070E8E
:101950000049070E003B070D002E070E0020070D63
:101960000013070D0006070D00F9060C00ED060D2B
:1019700000E0060C00D4060C00C8060C00BC060CE7
:1019800000B0060C00A4060B0099060C008D060B97
:101990000082060B0077060B006C060B0061060A3E
:1019A0000057060B004C060A0042060A0038060AD9
:1019B000002E060A0024060A001A060A001006096C
:1019C0000007060A00FD050900F4050900EB0509FA
:1019D00000E2050900D9050900D0050900C705097D
:1019E00000BE050900B5050800AD050800A50509FC
:1019F000009C050800940508008C05080084050873
:101A0000007C050800740508006C050700650508E2
:101A1000005D050700560508004E0507004705074D
:101A2000004005080038050700310507002A0507B2
:101A300000230507001C050600160507000F050713
:101A4000000805060002050700FB040600F5040770
:101A500000EE040600E8040600E2040700DB0406CA
:101A600000D5040600CF040600C9040600C304061E
:101A700000BD040600B7040600B1040500AC04066E
:101A800000A6040600A00405009B040600950405BA
:101A900000900406008A0405008504050080040601
:101AA000007A04050075040500700405006B040548
:101AB0000066040500610405005C04050057040588
:101AC00000520405004D04050048040500430405C8
:101AD000003E0404003A0405003504050030040407
:101AE000002C04050027040400230405001E040440
:101AF000001A04040016040500110404000D040477
:101B000000090405000404040000040400FC0304AC
:101B100000F8030400F4030400F0030400EC0304E1
:101B200000E8030400E4030400E0030400DC030411
:101B300000D8030400D4030400D0030400CC030441
:101B400000C8030300C503030024F404D9201BC408
:101B50000C5C0E9804C4095F0265077101F405F975
:101B600000FB04B30048048700C103690058035513
:101B70000003034500BE023A008402310053022AEA
:101B8000002902250004022000E4011C00C80119FC
:101B900000AF0117009801140084011300710110B7
:101BA000006101100051010E0043010D0036010BD0
:101BB000002B010B0020010B00150109000C01098D
:101BC0000003010800FB000800F3000800EB000719
:101BD00000E4000600DE000600D8000600D2000681
:101BE00000CC000500C7000500C2000500BD0004D0
:101BF00000B9000400B5000400B1000400AD000409
:101C000000A9000400A5000300A20003009F000437
:101C1000009B00030098000300950002009300035E
:101C200000900003008D0002008B0003008800027A
:101C3000008600020084000300810002007F000291
:101C4000007D0002007B00020079000200770001A5
:101C500000760002007400020072000100710002B0
:101C6000006F0002006D0001006C0002006A0001BC
:101C700000690002006700010066000100650001C4
:101C800000640002006200010061000100600001C8
:101C9000005F0002005D0001005C0001005B0001CC
:101CA000005A0001005900010058000100570001CE
:101CB00000560001005500010054000100530000CF
:101CC00000530001005200010051000100500001CA
:101CD000004F0001004E0000004E0001004D0001C9
:101CE000004C0001004B0000004B0001004A0001C5
:101CF00000490001004800000048000100470001C1
:101D000000460000004600010045000000450001BB
:101D100000440001004300000043000100420000B5
:101D200000420001004100000041000100400001AC
:101D3000003F0000003F0001003E0000003E0001A7
:101D4000003D0000003D0001003C0000003C0000A0
:101D5000003C0001003B0000003B0001003A000095
:101D6000003A00010039000000390001003800008D
:101D70000038000000380001003700000037000183
:101D8000003600000036000000360001003500007B
:101D90000035000000350001003400000034000070
:101DA0000034000100330000003300000033000164
:101DB000003200000032000000320001003100005B
:101DC0000031000000310001003000000030000050
:101DD00000300001002F0000002F0000002F000045
:101DE000002F0001002E0000002E0000002E000138
:101DF000002D0000002D0000002D0000002D00012E
:101E0000002C0000002C0000002C0000002C000121
:101E1000002B0000002B0000002B0000002B000115
:101E2000002A0000002A0000002A0000002A000109
:101E300000290000002900000029000000290000FE
:101E400000290001002800000028000000280000F0
:101E500000280000002800010027000000270000E3
:101E600000270000002700000027000100260000D6
:101E700000260000002600000026000000260001C9
:101E800000250000002500000025000000250000BE
:101E900000250000002500010024000000240000AF
:101EA00000240000002400000024000100230000A2
:101EB0000023000000230000002300000023000096
:101EC0000023000000230001002200000022000087
:101ED0000022000000220000002200000022000179
:101EE000002100000021000000210000002100006E
:101EF000002100000021000000210001002000005E
:101F00000020000000200000002000000020000051
:101F1000002000000020000000200001001F000041
:101F2000001F0000001F0000001F0000001F000035
:101F3000001F0000001F0001001E0000001E000026
:101F4000001E0000001E0000004D383420582059AB
:101F5000205A204500205A3A0020593A0020436F69
:101F6000756E7420583A200020746F6F206C6F6E6D
:101F70006720657874727573696F6E20707265760C
:101F8000656E7465640A0020636F6C642065787404
:101F9000727573696F6E2070726576656E746564B4
:101FA0000A004B494C4C45442E20004B494C4C45B3
:101FB000442E2000506C65617365207265736574F2
:101FC000005052494E5445522048414C544544001B
:101FD0005072696E7465722068616C7465642E203D
:101FE0006B696C6C28292063616C6C6564210A0044
:101FF00020746F6F206C6F6E6720657874727573D4
:10200000696F6E2070726576656E7465640A002073
:10201000636F6C6420657874727573696F6E20707D
:10202000726576656E7465640A004572726F72201F
:1020300077726974696E6720746F20454550524FFE
:102040004D210A00206279746573290A0053657472
:1020500074696E67732053746F7265642028006121
:1020600075746F25692E67004D3234004D32332070
:1020700025730057726974696E6720746F206669F2
:102080006C653A20006F70656E206661696C6564EE
:102090002C2046696C653A20006F70656E20666181
:1020A000696C65642C2046696C653A200046696C51
:1020B000652073656C65637465640A002053697AF2
:1020C000653A200046696C65206F70656E65643AFC
:1020D00020006F70656E206661696C65642C204617
:1020E000696C653A20002066696C653A20004E6F85
:1020F0007720002220706F73002220706172656E5D
:10210000743A2200535542524F5554494E4520438C
:10211000414C4C207461726765743A22004B494C03
:102120004C45442E2000747279696E6720746F20CC
:1021300063616C6C207375622D67636F64652066E4
:10214000696C6573207769746820746F6F206D61A6
:102150006E79206C6576656C732E204D4158206C2D
:102160006576656C2069733A004572726F723A0049
:1021700043616E6E6F74206F70656E20737562645C
:1021800069722000473930004731205A2D32300023
:1021900070012C0190012701B0012201C0011D0135
:1021A000F00118011002130130020E016002090152
:1021B00090020401C002FF000003FA004003F50092
:1021C0008003F000D003EB002004E6007004E1007F
:1021D000E004DC004005D700C005D2004006CD0079
:1021E000D006C8008007C3003008BE00F008B90060
:1021F000C009B400B00AAF00B00BAA00D00CA50013
:10220000000EA000500F9B00C010960050129100CD
:1022100000148C00C0158700B0178200B0197D0033
:10222000D01B7800001E730040206E0090226900D1
:10223000F024640040275F0090295A00E02B5500ED
:10224000102E500020304B0010324600E033410089
:1022500090353C001037370070383200A0392D001F
:10226000B03A2800A03B2300603C1E00103D19003E
:10227000903D1400103E0F00703E0A00C03E050065
:10228000003F000073746F70002066697273740001
:102290005A0059005800486F6D6520002066697229
:1022A00073740A005A0059005800486F6D65200089
:1022B0006563686F3A00726573657400205A002088
:1022C0005900580020204D61783A2000205A002003
:1022D0005900580020204D696E3A20004F66660074
:1022E000536F667420656E6473746F70733A200068
:1022F00043290A0061626C656420286D696E207450
:10230000656D702000436F6C64206578747275642D
:10231000657320617265200023646566696E6520BF
:102320002044454641554C545F4B6420002364656E
:1023300066696E65202044454641554C545F4B69A3
:10234000200023646566696E65202044454641553A
:102350004C545F4B702000504944204175746F7499
:10236000756E652066696E697368656421205075B5
:102370007420746865206C617374204B702C204B42
:102380006920616E64204B6420636F6E7374616EAC
:1023900074732066726F6D2062656C6F7720696E52
:1023A000746F20436F6E66696775726174696F6ED2
:1023B0002E680A00504944204175746F74756E652B
:1023C000206661696C6564212074696D656F757440
:1023D0000A00504944204175746F74756E6520661B
:1023E00061696C6564212054656D706572617475F6
:1023F000726520746F6F20686967680A00204B64FB
:102400003A2000204B693A2000204B703A20000A05
:1024100020436C617373696320504944200A002093
:1024200054753A2000204B753A2000206D61783AAF
:102430002000206D696E3A200020643A200020625E
:102440006961733A200042696C696E656172204768
:10245000726964206E6F742079657420637265619F
:102460007465640A00426564204C6576656C696E2B
:102470006720004661696C656420746F20656E6139
:10248000626C6520426564204C6576656C696E6798
:102490000A004F666673657473206170706C6965BD
:1024A00064004572723A20546F6F20666172210099
:1024B000546F6F206661722066726F6D2072656660
:1024C0006572656E636520706F696E740A0045738E
:1024D000746570732F6D6D004573746570732F6D27
:1024E0006D005A73746570732F6D6D005A73746547
:1024F00070732F6D6D005973746570732F6D6D005F
:102500005973746570732F6D6D00587374657073B3
:102510002F6D6D005873746570732F6D6D00412DB4
:1025200074726176656C00412D74726176656C0021
:10253000412D7265747261637400412D726574720D
:1025400061637400416D6178204500416D617820C0
:102550004500416D6178205A00416D6178205A0034
:10256000416D6178205900416D6178205900416DBD
:102570006178205800416D6178205800565472618E
:1025800076206D696E005654726176206D696E001A
:10259000566D696E00566D696E00566D6178204506
:1025A00000566D6178204500566D6178205A0056BE
:1025B0006D6178205A00566D6178205900566D6122
:1025C00078205900566D6178205800566D6178204A
:1025D000580056652D6A65726B0056652D6A6572E6
:1025E0006B00567A2D6A65726B00567A2D6A657299
:1025F0006B0056792D6A65726B0056792D6A65728B
:102600006B0056782D6A65726B0056782D6A65727C
:102610006B00416363656C00416363656C005A2025
:102620004F6666736574005A204F66667365740062
:10263000436F6E74726F6C0028290A0053746F70B8
:1026400077617463683A3A006265640A002C20730B
:10265000797374656D2073746F70706564212048A0
:1026600065617465725F49443A20004572723A2090
:102670004D494E54454D50004D494E54454D502006
:10268000747269676765726564004572723A204DBD
:10269000415854454D5020424544004572723A20FD
:1026A0004D415854454D50004D415854454D5020D2
:1026B000747269676765726564007374617274002F
:1026C00053442063617264206F6B0A006F70656E03
:1026D000526F6F74206661696C65640A00766F6C76
:1026E000756D652E696E6974206661696C65640A32
:1026F00000534420696E6974206661696C0A005257
:102700006573656E643A20006F6B004E414E494E12
:10271000495459494E46CDCCCC3D0AD7233C17B736
:10272000D13877CC2B329595E6241FB14F0A0000A3
:1027300020410000C84200401C4620BCBE4CCA1BC1
:102740000E5AAEC59D747AE1BDDA11241FBECFEFDB
:10275000D1E2DEBFCDBF00E00CBF14E0A0E0B2E0EC
:10276000E6E6F3EE01E00BBF02C007900D92A2383F
:10277000B107D9F725E1A2E8B4E001C01D92AF3A54
:10278000B207E1F713E1C4EAD3E100E006C0219704
:102790000109802FFE010E945FE5C33AD10780E066
:1027A0000807A9F70E9434DC0C94A1F10C940000F6
:1027B0002F923F924F925F926F927F928F929F9251
:1027C000AF92BF92CF92DF92EF92FF920F931F933F
:1027D000CF93DF93CDB7DEB7C258D1090FB6F894C7
:1027E000DEBF0FBECDBF0091AE0920E6029F800183
:1027F0001124025D174F1093C5050093C405809105
:10280000491480FF18C0E0EBF2E284917F013FEFB2
:10281000E31AF30A882321F00E941B37F701F5CF52
:10282000D8018D918D01882319F00E941B37F8CFB4
:102830008AE00E941B372091C4053091C505F9013B
:1028400080812F5F3F4F8032D1F3F093C505E09335
:10285000C4058E3469F0F090C405E090C5056AE2C5
:1028600070E08F2D9E2D0E9494E80097D1F420C037
:10287000818190ED980F9A3010F08D3261F7329689
:10288000DF0131962C9120532A30D0F3CD01FC0189
:10289000019620812032D9F3F093C505E093C40559
:1028A000DACFFC0131968291803231F08A3221F008
:1028B000AF2DBE2D9D9102C01082F5CFFD0180810C
:1028C00011968032D9F380538A3010F00C948833FB
:1028D00020E030E06AE0629FA001639F500D112468
:1028E0009A01205331098191280F311D87FD3A95B6
:1028F000808180538A3078F38F013196D8018C9192
:102900008032D1F310939504009394049D3411F414
:102910000C948523943511F40C940533973411F0FD
:102920000C9488332E31310511F40C94C122B8F483
:102930002430310538F48091A6022230310508F4A4
:1029400046C04FC02C31310509F476C610F00C9406
:1029500062212430310509F42DC60C942E3328321F
:10296000310509F465C6C0F42332310509F4D8C72E
:102970002432310511F40C94BE1F2132310511F0BF
:102980000C942E3389E292E09093CC108093CB107C
:102990000E940F350C942E332A35310511F40C9416
:1029A000C52248F42932310511F00C942E330E94CF
:1029B000738A0C942E332B35310511F40C94C922F3
:1029C0002C35310511F40C94CE220C942E3388232F
:1029D00011F40C942E330E94193C0E946C9E0C94AE
:1029E0002E33882311F40C942E3311E0223031055C
:1029F00009F010E00E94193C82E50E942F348823E0
:102A000009F45CC10E94C1346B017C014090071540
:102A1000509008156090091570900A1520910B15BB
:102A200030910C1540910D1550910E1523962CAF39
:102A30003DAF4EAF5FAF23978091F7149091F8149C
:102A4000A091F914B091FA1427968CAF9DAFAEAF58
:102A5000BFAF27972091FB143091FC144091FD14D7
:102A60005091FE142F962CAF3DAF4EAF5FAF2F9716
:102A700020E030E0A901C701B6010E9469ED88237A
:102A800009F47EC5A301920127966CAD7DAD8EAD94
:102A90009FAD27970E9469ED811111C023962CAD3F
:102AA0003DAD4EAD5FAD23972F966CAD7DAD8EAD38
:102AB0009FAD2F970E9469ED882309F461C520E03E
:102AC00030E0A901C701B6010E9469ED881F88277F
:102AD000881F18130BC080E090E0A0E8BFE36B965E
:102AE0008CAF9DAFAEAFBFAF6B970AC020E030E0B8
:102AF00040E85FEB6B962CAF3DAF4EAF5FAF6B978F
:102B0000A301920127966CAD7DAD8EAD9FAD279749
:102B10000E9467E563966CAF7DAF8EAF9FAF639702
:102B200023962CAD3DAD4EAD5FAD23972F966CAD8A
:102B30007DAD8EAD9FAD2F970E9467E567966CAF18
:102B40007DAF8EAF9FAF679763962CAD3DAD4EAD19
:102B50005FAD6397CA01B9010E94CEED4B015C01E4
:102B600067962CAD3DAD4EAD5FAD6797CA01B9011B
:102B70000E94CEED9B01AC01C501B4010E9468E545
:102B80000E94F9E72B966CAF7DAF8EAF9FAF2B976E
:102B900020E030E040E05FE30E94CEED4B015C01BD
:102BA000A7019601C701B6010E94CEED6B017C0121
:102BB000A5019401C501B4010E94CEED9B01AC01B9
:102BC000C701B6010E9467E50E94F9E79B01AC01CD
:102BD0006B966CAD7DAD8EAD9FAD6B970E94CEEDCB
:102BE0004B015C0127962CAD3DAD4EAD5FAD2797F7
:102BF000C301B2010E9468E520E030E040E05FE3FD
:102C00000E94CEED6B017C0167966CAD7DAD8EAD03
:102C10009FAD679790582B962CAD3DAD4EAD5FADF7
:102C20002B970E9454E69B01AC01C501B4010E94A0
:102C3000CEED9B01AC01C701B6010E9468E5A3017E
:102C400092010E9467E56B017C012F962CAD3DAD92
:102C50004EAD5FAD2F9723966CAD7DAD8EAD9FAD24
:102C600023970E9468E520E030E040E05FE30E94A7
:102C7000CEED2B013C012B962CAD3DAD4EAD5FADA5
:102C80002B9763966CAD7DAD8EAD9FAD63970E9423
:102C900054E69B01AC01C501B4010E94CEED9B013D
:102CA000AC01C301B2010E9468E523962CAD3DAD95
:102CB0004EAD5FAD23970E9467E514C089E40E9482
:102CC0002F34882329F00E94C1346B017C0103C09A
:102CD000C12CD12C76018AE40E942F348823F9F08C
:102CE0000E94C13423966CAF7DAF8EAF9FAF239708
:102CF00020E030E0A901C701B6010E9469ED811111
:102D00001EC020E030E0A90123966CAD7DAD8EADF4
:102D10009FAD23970E9469ED811111C031C420E05D
:102D200030E0A901C701B6010E9469ED882309F4CA
:102D300027C423961CAE1DAE1EAE1FAE2397A7015F
:102D40009601C701B6010E94CEED4B015C012396AE
:102D50002CAD3DAD4EAD5FAD2397CA01B9010E94C8
:102D6000CEED9B01AC01C501B4010E9468E50E9453
:102D7000F9E7AB966CAF7DAF8EAF9FAFAB9780910D
:102D8000071590910815A0910915B0910A152F9675
:102D90008CAF9DAFAEAFBFAF2F97A7019601BC011F
:102DA000CD010E9468E5E3966CAF7DAF8EAF9FAF1B
:102DB000E39720910B1530910C1540910D15509112
:102DC0000E1563962CAF3DAF4EAF5FAF6397239662
:102DD0002CAD3DAD4EAD5FAD239763966CAD7DAD33
:102DE0008EAD9FAD63970E9468E5E7966CAF7DAFAF
:102DF0008EAF9FAFE79780910F1590911015A0911E
:102E00001115B09112156B968CAF9DAFAEAFBFAFE1
:102E10006B979C01AD016091FF147091001580913A
:102E20000115909102150E9467E52B966CAF7DAF5E
:102E30008EAF9FAF2B9720910315309104154091D1
:102E4000051550910615AF962CAF3DAF4EAF5FAF55
:102E5000AF978091131590911415A0911515B0910D
:102E600016156F968CAF9DAFAEAFBFAF6F97A70132
:102E70009601505827962CAF3DAF4EAF5FAF2797C6
:102E800023964CAC5DAC6EAC7FAC239777FA709414
:102E900077F870948091F7149091F814A091F91438
:102EA000B091FA1467968CAF9DAFAEAFBFAF679786
:102EB000E3962CAD3DAD4EAD5FADE397BC01CD01CA
:102EC0000E9467E56B017C012091FB143091FC149A
:102ED0004091FD145091FE14A7962CAF3DAF4EAF1C
:102EE0005FAFA797E7962CAD3DAD4EAD5FADE797D1
:102EF000A7966CAD7DAD8EAD9FADA7970E9467E59F
:102F00004B015C01A701960127966CAD7DAD8EAD9E
:102F10009FAD27970E94CEEDA3966CAF7DAF8EAF8D
:102F20009FAFA397A5019401C301B2010E94CEED0A
:102F30009B01AC01A3966CAD7DAD8EAD9FADA3970B
:102F40000E9468E5A3966CAF7DAF8EAF9FAFA3974D
:102F5000A501940127966CAD7DAD8EAD9FAD2797F1
:102F60000E94CEED4B015C01A7019601C301B201A5
:102F70000E94CEED9B01AC01C501B4010E9467E542
:102F8000A3962CAD3DAD4EAD5FADA3970E94E6E597
:102F90006B017C0120E030E0A9010E9469ED87FF10
:102FA0000AC02BED3FE049EC50E4C701B6010E9496
:102FB00068E56B017C01112351F02BED3FE049ECFA
:102FC00050E4C701B6010E9467E56B017C0120E077
:102FD00030E0A901C701B6010E9469ED81112AC044
:102FE00067962CAD3DAD4EAD5FAD67972F966CAD3E
:102FF0007DAD8EAD9FAD2F970E9469ED81111AC0F6
:10300000A7962CAD3DAD4EAD5FADA79763966CAD69
:103010007DAD8EAD9FAD63970E9469ED81110AC0B1
:103020002BED3FE049EC50E4C701B6010E9468E592
:103030006B017C01AB962CAD3DAD4EAD5FADAB975A
:10304000C701B6010E94CEED9B01AC010E94CEEDFE
:103050004B015C012B962CAD3DAD4EAD5FAD2B977A
:10306000CA01B9010E94CEED9B01AC01C501B401BA
:103070000E9468E50E94F9E74B015C012FE632E10E
:1030800043E85AE30E9469ED87FD76C2C501B401A9
:103090000E94FAE60E94CBE665967FAF6EAF659719
:1030A000672B31F481E090E065969FAF8EAF659716
:1030B0006596AEADBFAD6597BD0180E090E00E9422
:1030C0006DED4B015C019B01AC01C701B6010E9493
:1030D00054E62F966CAF7DAF8EAF9FAF2F97A501B3
:1030E00094012B966CAD7DAD8EAD9FAD2B970E945C
:1030F00054E6EB966CAF7DAF8EAF9FAFEB976F96BC
:103100002CAD3DAD4EAD5FAD6F97AF966CAD7DAD67
:103110008EAD9FADAF970E9467E5A50194010E9417
:1031200054E6EF966CAF7DAF8EAF9FAFEF972F96C3
:103130002CAD3DAD4EAD5FAD2F97CA01B9010E94D8
:10314000CEED20E030E040E05FE30E94CEED9B0159
:10315000AC0160E070E080E89FE30E9467E5A7961D
:103160006CAF7DAF8EAF9FAFA7976B962CAD3DAD8B
:103170004EAD5FAD6B9729873A874B875C876F961B
:103180008CAD9DADAEADBFAD6F978D879E87AF8780
:10319000B88B6091ED027091EE02072E000C880B47
:1031A000990B0E946FED2091EF023091F002409157
:1031B000F1025091F2020E94CEED2AE037ED43E297
:1031C0005CE30E94CEEDAB966CAF7DAF8EAF9FAF50
:1031D000AB970E94C5499B01AC0128533F4F4F4F0D
:1031E0005F4FAF962CAF3DAF4EAF5FAFAF9724961A
:1031F0003FAD249728963FAF289725964FAD25974A
:1032000060964FAF609726962FAC269727963FACD7
:10321000279781E090E06D969FAF8EAF6D9768968F
:103220001FAE68976D96EEADFFAD6D9765962EADAE
:103230003FAD6597E217F30709F45EC10E94AED275
:103240000E94C549DC01CB01AF962CAD3DAD4EAD22
:103250005FADAF97821B930BA40BB50BB7FD10C0EE
:103260000E94C5499B01AC0128533F4F4F4F5F4F10
:10327000AF962CAF3DAF4EAF5FAFAF970E94879434
:1032800068963FAD68973F5F68963FAF6897393162
:103290000CF04EC0A7962CAD3DAD4EAD5FADA797DF
:1032A000C301B2010E94CEED6B017C012F962CADC3
:1032B0003DAD4EAD5FAD2F9728966FAD28976096C8
:1032C0007FAD6097C1010E94CEEDA70196010E94DB
:1032D00068E57B018C01A7962CAD3DAD4EAD5FAD91
:1032E000A79728966FAD289760967FAD6097C1012C
:1032F0000E94CEED4B015C012F962CAD3DAD4EAD45
:103300005FAD2F97C301B2010E94CEED9B01AC01CE
:10331000C501B4010E9467E528966FAF28976096B3
:103320007FAF60971C01C701D8012C013D0161C02E
:103330006D964EAD5FAD6D97BA0180E090E00E9452
:103340006DED2F962CAD3DAD4EAD5FAD2F970E942C
:10335000CEED4B015C010E9451E66B017C01C50181
:10336000B4010E94EEE74B015C01A701960127968C
:103370006CAD7DAD8EAD9FAD27970E94CEED2B013C
:103380003C01A501940123966CAD7DAD8EAD9FAD42
:1033900023970E94CEED9B01AC01C301B2010E94B4
:1033A00068E528966FAF289760967FAF60971C01FD
:1033B000A501940127966CAD7DAD8EAD9FAD27978D
:1033C0000E94CEED4B015C01A701960123966CADE6
:1033D0007DAD8EAD9FAD23970E94CEED9B01AC01DC
:1033E000C501B4010E9467E52B013C0168961FAE40
:1033F000689728962FAD289760963FAD6097A101FA
:10340000E3966CAD7DAD8EAD9FADE3970E9468E510
:103410006B017C0169837A838B839C83A301920176
:10342000E7966CAD7DAD8EAD9FADE7970E9468E5E8
:10343000A3966CAF7DAF8EAF9FAFA3976D837E8356
:103440008F83988729853A854B855C85EB966CAD93
:103450007DAD8EAD9FADEB970E9468E54B015C01A1
:1034600069877A878B879C87EF962CAD3DAD4EADF3
:103470005FADEF976D857E858F8598890E9468E5A1
:103480006D877E878F87988B1091F614C8A2D9A27A
:10349000EAA2FBA2A3968CAD9DADAEADBFADA39746
:1034A0008CA39DA3AEA3BFA388A699A6AAA6BBA6DC
:1034B000CE0180960E94CC36CE0180960E94789AEA
:1034C000C12EAB96ECACFDAC0EAD1FADAB979E0123
:1034D000235F3F4F4FE155E16BE175E187E195E1F6
:1034E0000E9492A46D96AEADBFAD6D9711966D968C
:1034F000BFAFAEAF6D9796CEC090F6148091F71423
:103500009091F814A091F914B091FA1488A399A39A
:10351000AAA3BBA38091FB149091FC14A091FD146D
:10352000B091FE148CA39DA3AEA3BFA38091FF1402
:1035300090910015A0910115B091021588A799A747
:10354000AAA7BBA7CE0180960E94CC36CE0180965A
:103550000E94789AAB96ECACFDAC0EAD1FADAB976C
:1035600023E035E14FE155E16BE175E187E195E15C
:103570000E9492A40E949B470E9410370C942E3305
:10358000E9E6F1E284918F010F5F1F4F882321F05C
:103590000E941B37F801F6CFE8EBF1E084918F0130
:1035A0000F5F1F4F882311F40C942E330E941B379A
:1035B000F801F4CF80E50E942F34882329F00E947F
:1035C000B6346B017C0103C0C12CD12C760183E59C
:1035D0000E942F34882321F00E94EA346B017C0181
:1035E0000E94EC8C0E94103780918A0E90918B0E75
:1035F000A0918C0EB0918D0EC80ED91EEA1EFB1E36
:1036000080914502811105C060E08EEC91E00E943E
:10361000674E0E94C549DC01CB018C199D09AE099A
:10362000BF09B7FD02C00C942E330E948794F1CFDE
:103630000E94778A0C942E330E94EC8C80E00E94CA
:10364000BC3D8091EF029091F002A091F102B09107
:10365000F2028093840490938504A0938604B0932F
:1036600087048091ED029091EE0290938304809301
:10367000820484E690E09093EE028093ED020E9433
:10368000103781E08093310280E1E7E0F5E1DF016E
:103690001D928A95E9F70E94743580E090E0ABE9CD
:1036A000B3E480930F1590931015A0931115B09368
:1036B000121580930B1590930C15A0930D15B093D4
:1036C0000E158093071590930815A0930915B093D4
:1036D0000A1540E050E060E772E44093EF02509337
:1036E000F0026093F1027093F202C090F6148983A5
:1036F0009A83AB83BC8388A399A3AAA3BBA38BAFF4
:103700009CAFADAFBEAF7A018B0123E135E1AE01D5
:10371000455C5F4FBE01605E7F4FCE0101960E9407
:1037200092A40E94EC8C10922D0880E090E00E9400
:10373000EB6C81E090E00E94EB6C82E090E00E94F4
:10374000EB6C3EEC832E30E1932E49E0A42E48E052
:10375000B42E57EDE52E51E0F52E6AEE662E64E1AB
:10376000762E7EEDC72E74E1D72EE7E04E2EE5E1F2
:103770005E2E00E010E0F40121E021934F01D5011D
:103780002D935D011601F601119211921192119281
:103790006F01C8010E94B735C7010E94B135D3013E
:1037A0002D913D914D915D913D010E9468E5F101A2
:1037B00020813181428153810E9468E5D2016D935D
:1037C0007D938D939D932D010F5F1F4FB4E0EB0E02
:1037D000F11C0330110579F60E9472358091BD0706
:1037E000809331020E94263E80916D060E94BC3D6E
:1037F000E1E0F2E084918F010F5F1F4F882321F0F9
:103800000E941B37F801F6CF6091071570910815DB
:103810008091091590910A1542E00E940E3BEDEF50
:10382000F1E084918F010F5F1F4F882321F00E94E8
:103830001B37F801F6CF60910B1570910C15809134
:103840000D1590910E1542E00E940E3BE9EFF1E05C
:1038500084918F010F5F1F4F882321F00E941B3737
:10386000F801F6CF60910F15709110158091111528
:103870009091121542E00E940E3BE5EFF1E0849139
:103880008F010F5F1F4F882321F00E941B37F80123
:10389000F6CF6091131570911415809115159091C4
:1038A000161542E00E940E3B80919A04811113C0CC
:1038B00080910F1590911015A0911115B0911215CE
:1038C0008093960490939704A0939804B0939904DE
:1038D00081E080939A04C0909604D0909704E09081
:1038E0009804F0909904C0928804D0928904E092E0
:1038F0008A04F0928B04E3EEF1E084918F010F5F74
:103900001F4F882321F00E941B37F801F6CF42E0B9
:10391000C701B6010E940E3B0E94678C0C942E33A7
:1039200084E192E09093CC108093CB100E940F35ED
:1039300080E192E09093CC108093CB100E940F35E1
:1039400080915A05811113C0809186069091870657
:10395000A0918806B09189068093560590935705EB
:10396000A0935805B093590581E080935A052AE940
:1039700039E949E95EE360915605709157058091F8
:103980005805909159050E9468E560936E06709302
:103990006F06809370069093710660937206709321
:1039A0007306809374069093750680914E0581117D
:1039B00013C080916A0790916B07A0916C07B0913A
:1039C0006D0780934A0590934B05A0934C05B093E7
:1039D0004D0581E080934E052AE939E949E95EE326
:1039E00060914A0570914B0580914C0590914D0571
:1039F0000E9468E560938E0770938F07809390070D
:103A00009093910780914205811113C080916E07B8
:103A100090916F07A0917007B091710780933E0558
:103A200090933F05A0934005B093410581E08093BA
:103A300042052AE939E949E95EE360913E05709162
:103A40003F0580914005909141050E9468E5609393
:103A500092077093930780939407909395078091B2
:103A60003605811113C08091720790917307A09160
:103A70007407B09175078093320590933305A09336
:103A80003405B093350581E0809336052AE939E99C
:103A900049E95EE360913205709133058091340508
:103AA000909135050E9468E560939607709397079B
:103AB000809398079093990780912A05811113C0EC
:103AC0008091760790917707A0917807B091790758
:103AD0008093260590932705A0932805B093290588
:103AE00081E080932A052AE939E949E95EE360919A
:103AF00026057091270580912805909129050E943F
:103B000068E560939A0770939B0780939C07909356
:103B10009D0780911E05811113C0809182079091AD
:103B20008307A0918407B091850780931A0590932D
:103B30001B05A0931C05B0931D0581E080931E0515
:103B40002AE939E949E95EE360911A0570911B059C
:103B500080911C0590911D050E9468E56093A60761
:103B60007093A7078093A8079093A90780911205E7
:103B7000811113C08091860790918707A0918807D3
:103B8000B091890780930E0590930F05A0931005BF
:103B9000B093110581E0809312052AE939E949E9DA
:103BA0005EE360910E0570910F0580911005909174
:103BB00011050E9468E56093AA077093AB07809394
:103BC000AC079093AD0780910605811113C08091D9
:103BD000660790916707A0916807B0916907809385
:103BE000020590930305A0930405B093050581E0B9
:103BF00080930605C0900205D0900305E09004056F
:103C0000F09005052AE939E949E95EE3C701B60103
:103C10000E9468E560938A0770938B0780938C07F6
:103C200090938D072AE939E949E15FE3C701B601BD
:103C30000E9468E56093AE077093AF078093B0076A
:103C40009093B1078CE092E09093CC108093CB10CE
:103C50000E940F3588E092E09093CC108093CB10B7
:103C60000E940F3584E092E09093CC108093CB10AB
:103C70000E940F358091FA04811113C0809186064D
:103C800090918706A0918806B09189068093F604EA
:103C90009093F704A093F804B093F90481E0809323
:103CA000FA042AE939E949E95EE36091F604709182
:103CB000F7048091F8049091F9040E9468E56093FC
:103CC0006E0670936F0680937006909371066093F2
:103CD00072067093730680937406909375068091B4
:103CE000EE04811113C080916A0790916B07A09137
:103CF0006C07B0916D078093EA049093EB04A09356
:103D0000EC04B093ED0481E08093EE042AE939E9F4
:103D100049E95EE36091EA047091EB048091EC0460
:103D20009091ED040E9468E560938E0770938F0771
:103D300080939007909391078091E204811113C0C2
:103D400080916E0790916F07A0917007B0917107F5
:103D50008093DE049093DF04A093E004B093E10429
:103D600081E08093E2042AE939E949E95EE3609160
:103D7000DE047091DF048091E0049091E1040E94E0
:103D800068E56093920770939307809394079093EC
:103D900095078091D604811113C08091720790918C
:103DA0007307A0917407B09175078093D204909324
:103DB000D304A093D404B093D50481E08093D604B7
:103DC0002AE939E949E95EE36091D2047091D304AC
:103DD0008091D4049091D5040E9468E56093960781
:103DE0007093970780939807909399078091CA04DE
:103DF000811113C08091760790917707A091780781
:103E0000B09179078093C6049093C704A093C80427
:103E1000B093C90481E08093CA042AE939E949E9E9
:103E20005EE36091C6047091C7048091C8049091CC
:103E3000C9040E9468E560939A0770939B0780937A
:103E40009C0790939D078091BE04811113C08091BF
:103E5000820790918307A0918407B0918507809392
:103E6000BA049093BB04A093BC04B093BD0481E05A
:103E70008093BE042AE939E949E95EE36091BA0416
:103E80007091BB048091BC049091BD040E9468E5D0
:103E90006093A6077093A7078093A8079093A9073C
:103EA0008091B204811113C0809186079091870799
:103EB000A0918807B09189078093AE049093AF04D6
:103EC000A093B004B093B10481E08093B2042AE9D6
:103ED00039E949E95EE36091AE047091AF048091E5
:103EE000B0049091B1040E9468E56093AA077093B2
:103EF000AB078093AC079093AD078091A604811126
:103F000013C08091660790916707A0916807B091F0
:103F100069078093A2049093A304A093A404B09390
:103F2000A50481E08093A604C090A204D090A304CD
:103F3000E090A404F090A5042AE939E949E95EE398
:103F4000C701B6010E9468E560938A0770938B07EA
:103F500080938C0790938D072AE939E949E15FE363
:103F6000C701B6010E9468E56093AE077093AF0782
:103F70008093B0079093B1070C942E3385E292E0C2
:103F80009093CC108093CB100E940F3581E292E089
:103F90009093CC108093CB100E940F358091BA057E
:103FA000811113C08091860690918706A0918806A2
:103FB000B09189068093B6059093B705A093B80594
:103FC000B093B90581E08093BA052AE939E949E956
:103FD0005EE36091B6057091B7058091B805909148
:103FE000B9050E9468E560936E0670936F06809332
:103FF00070069093710660937206709373068093B7
:104000007406909375068091AE05811113C080915E
:104010006A0790916B07A0916C07B0916D07809330
:10402000AA059093AB05A093AC05B093AD0581E0D4
:104030008093AE052AE939E949E95EE36091AA0572
:104040007091AB058091AC059091AD050E9468E53B
:1040500060938E0770938F078093900790939107DA
:104060008091A205811113C080916E0790916F0716
:10407000A0917007B091710780939E0590939F0562
:10408000A093A005B093A10581E08093A2052AE941
:1040900039E949E95EE360919E0570919F05809141
:1040A000A0059091A1050E9468E560939207709326
:1040B00093078093940790939507809196058111BB
:1040C00013C08091720790917307A0917407B0910B
:1040D00075078093920590939305A0939405B093F0
:1040E000950581E0809396052AE939E949E95EE37F
:1040F000609192057091930580919405909195053A
:104100000E9468E5609396077093970780939807DD
:104110009093990780918A05811113C08091760749
:1041200090917707A0917807B091790780938605E1
:1041300090938705A0938805B093890581E08093CB
:104140008A052AE939E949E95EE3609186057091BB
:10415000870580918805909189050E9468E56093A4
:104160009A0770939B0780939C0790939D0780917B
:104170007E05811113C08091820790918307A091E1
:104180008407B091850780937A0590937B05A0936F
:104190007C05B0937D0581E080937E052AE939E9AD
:1041A00049E95EE360917A0570917B0580917C0519
:1041B00090917D050E9468E56093A6077093A7071C
:1041C0008093A8079093A90780917205811113C06D
:1041D0008091860790918707A0918807B091890701
:1041E00080936E0590936F05A0937005B093710551
:1041F00081E0809372052AE939E949E95EE360913B
:104200006E0570916F0580917005909171050E9407
:1042100068E56093AA077093AB078093AC0790930F
:10422000AD0780916605811113C08091660790915A
:104230006707A0916807B091690780936205909322
:104240006305A0936405B093650581E080936605DE
:10425000C0906205D0906305E0906405F09065051C
:104260002AE939E949E95EE3C701B6010E9468E538
:1042700060938A0770938B0780938C0790938D07C8
:104280002AE939E949E15FE3C701B6010E9468E51F
:104290006093AE077093AF078093B0079093B10718
:1042A0008DE192E09093CC108093CB100E940F355B
:1042B00088E192E09093CC108093CB100E940F3550
:1042C0000C942E3311E01093C3050E9451431093B8
:1042D000BE078090760690907706A0907806B09002
:1042E000790620917A0630917B0640917C065091A8
:1042F0007D06C501B4010E9467E59B01AC01C501C3
:10430000B4010E9468E56B017C01609372067093B2
:1043100073068093740690937506A50194010E941C
:1043200067E59B01AC01C701B6010E9468E5609397
:104330006E0670936F06809370069093710680905E
:10434000860690908706A0908806B09089062091F6
:104350008206309183064091840650918506C501FE
:10436000B4010E9467E59B01AC01C501B4010E9444
:1043700068E56B017C0160938A0670938B068093DD
:104380008C0690938D06A50194010E9467E59B0120
:10439000AC01C701B6010E9468E560938E06709378
:1043A0008F068093900690939106C0909606D090C9
:1043B0009706E0909806F090990620919A06309121
:1043C0009B0640919C0650919D06C701B6010E9434
:1043D00067E59B01AC01C701B6010E9468E56093E7
:1043E0009206709393068093940690939506C090DE
:1043F000AE06D090AF06E090B006F090B1062091E6
:10440000AA063091AB064091AC065091AD06C701AB
:10441000B6010E9467E59B01AC01C701B6010E948D
:1044200068E56093B2067093B3068093B4069093E8
:10443000B506C0906E07D0906F07E0907007F090BF
:104440007107209172073091730740917407509162
:104450007507C701B6010E9467E59B01AC01C70162
:10446000B6010E9468E560936A0770936B078093BA
:104470006C0790936D078090960790909707A09097
:104480009807B090990720919A0730919B07409127
:104490009C0750919D07C501B4010E9467E59B01EF
:1044A000AC01C501B4010E9468E56B017C01609319
:1044B0009207709393078093940790939507A501B3
:1044C00094010E9467E59B01AC01C701B6010E94FF
:1044D00068E560938E0770938F07809390079093A1
:1044E00091078090A6079090A707A090A807B0908A
:1044F000A9072091A2073091A3074091A4075091EA
:10450000A507C501B4010E9467E59B01AC01C50187
:10451000B4010E9468E56B017C016093AA07709367
:10452000AB078093AC079093AD07A50194010E945F
:1045300067E59B01AC01C701B6010E9468E5609385
:10454000AE077093AF078093B0079093B1070E94B6
:1045500021B164EF71E080E090E00E948D490E94FB
:10456000556064E670E080E090E00E948D490E9412
:10457000166264E670E080E090E00E948D490C9441
:104580002E330E94DC410C942E33109293040C9431
:104590002E3381E0809393040C942E3385E40E94A3
:1045A0002F34B82E811102C00E94EC8C8DE4882E2D
:1045B00083E0982E97E0C92E95E1D92E2EEDE22EBC
:1045C00024E1F22E00E010E0A12CF40181914F01D2
:1045D0000E942F34882309F44CC0D6012D913D91BF
:1045E0004D915C91C158DF4F2883CF57D040C058C0
:1045F000DF4F3883C058D040CF57DF4F4883C15872
:10460000D040CE57DF4F5883C258D0400E94C134AB
:10461000F6016083718382839383C158DF4F2881C1
:10462000CF57D040C058DF4F3881C058D040CF5707
:10463000DF4F4881C158D040CE57DF4F5881C25814
:10464000D04003301105A9F00E9467E59B01AC0141
:10465000D7016D917D918D919C910E9468E5F70144
:104660006083718382839383C8010E94B735AA2433
:10467000A3940F5F1F4FF4E0CF0ED11C24E0E20E95
:10468000F11C0430110509F0A0CFAA2019F00E94F6
:10469000723537C0BB20A9F1C0901315D090141506
:1046A000E0901515F090161520910014309101142A
:1046B0004091021450910314C701B6010E94CEED3F
:1046C0000E94BBE76093091170930A1180930B114C
:1046D00090930C11C701B6010E94C5E62FB7F8945C
:1046E0006093610E7093620E8093630E9093640EDC
:1046F0002FBF1092F9101092FA101092FB10109226
:10470000FC100E94AD6E0C942E332537310511F448
:104710000C945E2E08F0D5C02B34310509F46FC51A
:1047200008F072C02831310509F49BC208F03EC080
:104730002231310511F40C94992DD8F42230310531
:1047400008F4CEC12131310511F00C942E3360E014
:104750008DE592E00E94674E5F988A989FB7F89423
:10476000809108018E7F809308019FBF12980C945E
:104770002E332531310509F46AC240F42431310564
:1047800011F00C942E33E5E7F2E01EC2263131051C
:1047900009F461C22731310511F00C942E3340E049
:1047A00061E0C8010E94FFBA0C942E332E3131050E
:1047B00009F4B0C2B0F42A31310509F461C208F439
:1047C00056C22B31310509F469C22C31310511F083
:1047D0000C942E3340E060E0C8010E94FFBA0C94B4
:1047E0002E332032310509F4AAC308F4F6C32A3265
:1047F000310509F4BCC42033310511F00C942E337B
:104800000E9460700C942E332936310509F409C6D4
:1048100068F52335310511F40C94952DA0F42D3451
:10482000310509F40EC508F4EEC42135310511F443
:104830000C947D2D2235310511F00C942E331092FD
:1048400092040C942E332535310511F40C94BC2DB3
:1048500010F40C94992D2C35310511F40C94CB2DBA
:104860002836310509F4FDC40C942E332E3631055B
:1048700009F439C590F42B36310511F40C946F2DE1
:1048800010F40C944F2D2C36310509F4ABC52D36A0
:10489000310509F4E0C50C942E332037310509F4B5
:1048A000A5C508F433C52237310511F40C94502EF8
:1048B0002337310511F00C942E33E8EEF3E00C941D
:1048C000532E2E3241E0340711F40C94943008F04A
:1048D00079C02B3C310511F40C94092FD8F52C38F4
:1048E000310509F487C598F42837310511F40C9483
:1048F000E52E2937310511F40C94EB2E27373105BD
:1049000011F00C942E33E3EAF4E00C94632E2E3B6A
:10491000310509F445C748F42139310511F00C94EB
:104920002E330E94636F0C942E33283C310511F412
:104930000C94F02E293C310511F00C942E334CE0F0
:10494000E42E44E1F42E0DE413E054E0D52ED00E15
:104950000C94F32E2C3D310511F40C94F82FB0F487
:104960002D3C310511F40C94822F10F40C94242F5B
:104970002E3C310511F40C94DF2F233D310511F04D
:104980000C942E330E9458C90C942E33223E3105CC
:1049900011F40C94FB2F48F42D3D310511F00C94CB
:1049A0002E330E9431C90C942E332C3281E038070B
:1049B00011F40C94FE2F2D32314011F40C9401307F
:1049C0000C942E33253FA1E03A0711F40C94A43047
:1049D00008F046C02239E1E03E0711F40C949A3009
:1049E00000F5233641E0340711F40C94DB3248F42F
:1049F0002F32314011F00C942E330E9472C40C946B
:104A00002E33203991E0390711F40C949730213975
:104A1000314011F00C942E3381E00E94E53F0C945C
:104A20002E33243AB1E03B0711F40C949E3048F445
:104A30002A39314011F00C942E330E9449C40C9451
:104A40002E332C3A41E0340711F40C94A130243F6A
:104A5000314011F00C942E330E9421B10C942E336E
:104A6000233583E0380711F40C944632F8F4273FDD
:104A7000A1E03A0711F40C94AC3010F40C94A93076
:104A80002939E2E03E0711F40C94E22F2A39324032
:104A900011F00C942E338FEBE82E87E0F82E0DE406
:104AA00013E093E0D92ED00E0C94EB2F283743E07F
:104AB000340711F40C94F23238F42935334011F4F0
:104AC0000C94B6300C942E33203A93E0390709F455
:104AD0007AC2273E334011F40C94F7320C942E33F3
:104AE00080E50E942F34882361F00E94B6346B0168
:104AF0007C01BB24B394672B682B692B31F4B12C58
:104B000004C0B12CC12CD12C760183E50E942F3436
:104B1000882399F00E94EA346B017C01B1100FC028
:104B2000672B682B692B59F4F8018081882339F0B1
:104B300061E0C8010E947C4E07C0BB20A9F360E081
:104B40008CE492E00E94674E81E0809347060E94C9
:104B5000EC8C0E941037C114D104E104F104E9F097
:104B600080918A0E90918B0EA0918C0EB0918D0E3B
:104B7000C80ED91EEA1EFB1E0E94C549DC01CB01EE
:104B80008C199D09AE09BF09B7FF1AC0809147066D
:104B90008823B1F00E948794EFCF80914706882345
:104BA00019F00E948794F9CF8091691160E0882301
:104BB00019F08DE392E002C08DE292E00E94674E10
:104BC000109247060C942E3384918F010F5F1F4F74
:104BD000882321F00E941B37F801F6CF1092EF13C3
:104BE0001092EE1340E050E0BA018AE991E10E9490
:104BF00055B68BE1EAE9F1E1DE01159601900D92DF
:104C00008A95E1F780919811909199119C838B83FB
:104C10008DED93E09A83898340E050E0BE016F5FA1
:104C20007F4F8BE294E00E94CFB8CE0101960E94A4
:104C3000EC6DE6E6F2E084918F010F5F1F4F882351
:104C400011F40C942E330E941B37F801F4CF0E940C
:104C5000D6D40C942E331092691110926A110C94D0
:104C60002E330E94B1B80E9491D60C942E3381E06D
:104C70008093AF098093CD10109269110C942E335C
:104C800080916A11882311F40C942E3383E50E94DD
:104C90002F3481110C9431330C942E3380916A118E
:104CA000882351F1E6E8F2E084918F010F5F1F4FF6
:104CB000882321F00E941B37F801F6CF6091E5139D
:104CC0007091E6138091E7139091E8134AE00E94F7
:104CD00048378FE20E941B376091E1137091E21315
:104CE0008091E3139091E4134AE00E9448378AE0F0
:104CF0000E941B370C942E33E8E9F2E084918F0177
:104D00000F5F1F4F882311F40C942E330E941B3722
:104D1000F801F4CF80916A11882311F40C942E339A
:104D200084E393E10E9423B684E393E10E940F663B
:104D30001092681110926711E0909404F09095041D
:104D400080916A11882311F40C942E33109269110A
:104D500080913713882321F084E393E10E940F664A
:104D60001D8218861C821B828DED93E09A838983B5
:104D700086E991E19093B6118093B511D7018C919A
:104D80008F3209F067C06FE270E0C7010E9494E8BB
:104D90008C010F5F1F4FFE0131964F010115110568
:104DA00009F45EC06FE270E0C8010E9494E86C01F3
:104DB000009709F456C00817190708F052C05C01A3
:104DC000A01AB10AA501B801CE0180960E94BDE8E3
:104DD000E0E2F0E0EC0FFD1FEA0DFB1D10828E01FA
:104DE000005E1F4FD8018D918D01882319F00E941C
:104DF0001B37F8CF8AE00E941B376091B511709184
:104E0000B6116115710511F06C5F7F4F21E0AE01A5
:104E1000405E5F4FCE0105960E94F06B811112C07B
:104E2000BE01605E7F4F8FEC92E00E9422378EE2DF
:104E30000E941B378AE00E941B37C4010E94EC6D60
:104E40000C942E339092B6118092B51186010F5FAB
:104E50001F4FA4CF87EB91E19093B6118093B511CA
:104E600087016091B5117091B6116115710511F04E
:104E70006C5F7F4F18A21BA222E0A801CE01809692
:104E80000E94F06B811102C0F12C14C0CE018096FB
:104E90000E9480C08823C1F361E0CE0180960E9409
:104EA0001866009789F325EEFC0120831BA20E945F
:104EB000D1B3F82ECE0180960E94C636FF2009F1AC
:104EC000E9EAF2E084917F012FEFE21AF20A8823E7
:104ED00021F00E941B37F701F5CFD8018D918D018C
:104EE000882319F00E941B37F8CF8AE00E941B37F5
:104EF0001092E5131092E6131092E7131092E81344
:104F000018C0E7EBF2E084917F01BFEFEB1AFB0AD8
:104F1000882321F00E941B37F701F5CFF80181911A
:104F20008F01882319F00E941B37F8CF8EE20E9470
:104F30001B37CE0101960E94EC6D0C942E338091AC
:104F4000691181110E94EC8C0091940410919504D8
:104F500061E270E0C8010E9494E8009719F08C01AA
:104F60000F5F1F4F80E50E942F34882349F0FF24F4
:104F7000F39480918C0490918D048017910708F030
:104F8000F12C80916A11882311F40C942E334F2D4B
:104F900061E0C8010E94FFBA83E50E942F34882394
:104FA00049F080918C0490918D048017910710F442
:104FB0000C9442330E94B1B8F1100C942E330E942D
:104FC00091D60C942E3381E08093681140E060E02C
:104FD000C8010E94FFBA0C942E330E947BB80CE3E8
:104FE000C02ED12CE12CF12CA70196010E9444F196
:104FF000762E672ECA01B901A70196010E9444F1DD
:105000006B017C01CA01B90128E130E040E050E0C9
:105010000E9444F14B015C01C9016DE671E00E9400
:1050200038E58E010F5F1F4F6115710599F06F9282
:105030007F92DF92CF929F928F929F938F937F93D5
:105040006F938BE093E09F938F931F930F930E9436
:105050003AED12C00097B1F06F927F92DF92CF923B
:105060009F928F929F938F938BEF92E09F938F935A
:105070001F930F930E943AED0FB6F894DEBF0FBE58
:10508000CDBF36C081149104A104B10479F06F92B0
:105090007F92DF92CF929F928F928FEE92E09F93BA
:1050A0008F931F930F930E943AEDE6CFC114D10462
:1050B000E104F10469F06F927F92DF92CF9287EE64
:1050C00092E09F938F931F930F930E943AEDD4CF5A
:1050D0006F927F9283EE92E09F938F931F930F9333
:1050E0000E943AED0F900F900F900F900F900F903D
:1050F00060E0C8010E947C4EE0EBF2E284917F0107
:10510000BFEFEB1AFB0A882321F00E941B37F7013F
:10511000F5CFB8018FE193E00E9422378AE00E9428
:105120001B378091DF07882311F40C942E331092E3
:10513000DF076091E4077091E507072E000C880BEC
:10514000990B0E946FED209123023091240240912F
:105150002502509126020E94B0E7181614F00C9414
:105160002E331092E5071092E4070C942E3383E55A
:105170000E942F34882311F40C942E330E94A934FA
:105180007C018F3F910519F010F00C942E3380E5CF
:105190000E942F34882339F00E94A9348C0197FF94
:1051A00004C00C942E330DE010E0D02EEDEFF2E0B1
:1051B000C8019927219131912817390731F023E04F
:1051C000ED34F207B9F70C941B33E9E6F1E2849170
:1051D0008F010F5F1F4F882321F00E941B37F801BA
:1051E000F6CFECE2F3E084918F010F5F1F4F88232D
:1051F00011F40C942E330E941B37F801F4CF0E9457
:1052000091D60C942E338091B009843010F00C9418
:105210002E338091C20591E0980F9093C205913092
:1052200061F49093AF099093CD108E5F8093C20587
:105230000E941B378AE00E941B371092AF090C9422
:105240002E33EBE3F3E084918F010F5F1F4F882330
:1052500021F00E941B37F801F6CF0E94B1C10C94D7
:105260002E3388E690E00E94D63A81110C942E33BA
:105270008091491483FF02C00C942E3383E50E9471
:105280002F34882361F10E94C1340E94C5E67093D7
:10529000E5076093E4070E94C13420E030E04AEA69
:1052A00052E40E9469ED18163CF00E94B1C160E022
:1052B0008BE593E00E94674E0E94C1342091B609AD
:1052C0003091B7094091B8095091B9090E94B0E7EF
:1052D00018162CF460E080E593E00E94674E0E946F
:1052E0004AE10C942E338EE40E942F34882311F46B
:1052F0000C942E330E9421D96093A5157093A615A6
:105300008093A7159093A8150C942E3383E50E94E3
:105310002F34882319F00E94423401C080E080932A
:105320004914E0EBF2E284918F010F5F1F4F882355
:1053300021F00E941B37F801F6CFE9E7F3E08491F2
:105340008F010F5F1F4F882321F00E941B37F80148
:10535000F6CF809149148823A1F11BE6C12E13E0FA
:10536000D12EE12CF12C20E08091491490E00E2CFC
:1053700002C0959587950A94E2F780FF17C0BB2479
:10538000B394B20E222319F08CE20E941B37F6016F
:1053900025913491F901849189010F5F1F4F882372
:1053A00021F00E941B379801F5CF2B2DFFEFEF1A4C
:1053B000FF0A32E0C30ED11C45E0E416F104A1F669
:1053C0000CC0E5E7F3E084918F010F5F1F4F882346
:1053D00021F00E941B37F801F6CF8AE00E941B37AC
:1053E0000C942E33109200020C942E3380E893E03C
:1053F0000E9444948091491483FF02C00C942E3380
:1054000083E50E942F34882311F40C942E330E94DC
:10541000C1340E94C5E67093E3076093E2070C94E1
:105420002E3389E690E00E94D63A81110C949D3388
:10543000E9E8F3E084918F010F5F1F4F882321F08B
:105440000E941B37F801F6CF0E94D86F8AE00E94B5
:105450001B370C949D338DE690E00E94D63A811163
:105460000C942E338091491483FF02C00C942E3388
:1054700083E50E942F342C968FAF2C97811105C0A5
:1054800082E50E942F348823B1F10E94C1340E942A
:10549000C5E67093E5076093E4070E94C13420E0FD
:1054A00030E04AEA52E40E9469ED181614F40C94B4
:1054B00054330E94B1C160E08CEA93E00E94674ED1
:1054C0006091E4077091E507072E000C880B990B9B
:1054D0000E946FED2091B6093091B7094091B8094B
:1054E0005091B9090E94B0E718162CF460E081EAE7
:1054F00093E00E94674E0E944AE181E0809300029F
:1055000027961CAE1DAE1EAE1FAE27972B961CAE67
:105510001DAE1EAE1FAE2B971FAE60961FAE6097DE
:105520005CE364965FAF64978CE168968FAF689791
:1055300096E46C969FAF6C97C12CD12CA0E8EA2E14
:10554000BFEBFB2E812C912C54016091E4077091EC
:10555000E507072E000C880B990B0E946FED162FA4
:10556000072F782E692E262F372F482F592FB60157
:10557000C7010E9469ED882331F12091B60930916D
:10558000B7094091B8095091B909612F702F872D43
:10559000962D0E9469ED881F8827881F8FAF2C9653
:1055A000AFAD2C97AA2399F0882389F0809100024F
:1055B000882311F40C942E3360E08CE893E00E9471
:1055C000674E0C942E331C2D0D2D7E2C6F2C0E94BB
:1055D000C5496B017C01DC01CB012B962CAD3DADA7
:1055E0004EAD5FAD2B97821B930BA40BB50BB7FD94
:1055F00047C0D701C60188519C4FAF4FBF4F2B9674
:105600008CAF9DAFAEAFBFAF2B970E94D86FEDE9C7
:10561000F3E084912F019FEF491A590A882321F062
:105620000E941B37F201F5CF81149104A104B1044B
:10563000D1F0D501C401805F984DAF4FBF4FBC0181
:10564000CD016C197D098E099F0928EE33E040E0F9
:1056500050E00E9444F1CA01B9010E94C9378AE0B2
:105660000E941B370DC0EAE9F3E084912F01AFEFF0
:105670004A1A5A0A882321F00E941B37F201F5CFFB
:105680000E9487940E9410372090B6093090B70985
:105690004090B8095090B9099101A201612F702F73
:1056A000872D962D0E9467E59F7781149104A104B0
:1056B000B10449F420E030E040E85FE30E9469ED86
:1056C00087FF0BC008C020E030E040E450E40E94B7
:1056D000B0E7181614F446015701BFADBB2309F417
:1056E00043C027962CAD3DAD4EAD5FAD279721153C
:1056F00031054105510541F0D701C601821B930BCD
:10570000A40BB50BB7FD30C09101A20160966FAD3F
:10571000609764967FAD649768968FAD68976C9636
:105720009FAD6C970E9467E520E030E040EC5FE3BE
:105730000E9469ED87FD3ACFD701C601805A954195
:10574000AF4FBF4F27968CAF9DAFAEAFBFAF279780
:1057500060962FAE609764963FAE649768964FAEA2
:1057600068976C965FAE6C9780910002882309F46D
:105770001DCF81149104A104B10429F4C12ED02EAF
:10578000E72CF62CE2CE90E1C91A97E2D90AE1089B
:10579000F108C818D908EA08FB08F7FE07CFEECFD2
:1057A0008091491483FD5AC760E08DEC93E00E941C
:1057B000674E83E50E942F342C968FAF2C97811172
:1057C00005C082E50E942F348823A1F00E94C134D5
:1057D0000E94C5E67093E3076093E2070E94C1341C
:1057E00020E030E040EA50E40E94B0E7181614F4DC
:1057F0000E9491D681E0809300028091F6148093FC
:105800008E0427961CAE1DAE1EAE1FAE27972B969C
:105810001CAE1DAE1EAE1FAE2B971FAE60961FAE08
:105820006097ACE36496AFAF6497BCE16896BFAF96
:105830006897E6E46C96EFAF6C97C12CD12CE0E84A
:10584000EE2EFFEBFF2E812C912C54016091E2078C
:105850007091E307072E000C880B990B0E946FEDE7
:10586000162F072F782E692E262F372F482F592FC6
:10587000B601C7010E9469ED882321F12091B20988
:105880003091B3094091B4095091B509612F702F3F
:10589000872D962D0E9469ED881F8827881F8FAF5E
:1058A0002C96FFAD2C97FF2389F0882379F0809107
:1058B0000002882309F4D2C660E08CEB93E00E94DA
:1058C000674ECCC61C2D0D2D7E2C6F2C0E94C54919
:1058D0006B017C01DC01CB012B962CAD3DAD4EADB7
:1058E0005FAD2B97821B930BA40BB50BB7FD47C085
:1058F000D701C60188519C4FAF4FBF4F2B968CAF3D
:105900009DAFAEAFBFAF2B970E94D86FE9ECF3E02D
:1059100084912F019FEF491A590A882321F00E9490
:105920001B37F201F5CF81149104A104B104D1F029
:10593000D501C401805F984DAF4FBF4FBC01CD0171
:105940006C197D098E099F0928EE33E040E050E094
:105950000E9444F1CA01B9010E94C9378AE00E943D
:105960001B370DC0E6ECF3E084912F01AFEF4A1A2C
:105970005A0A882321F00E941B37F201F5CF0E94BA
:1059800087940E9410372090B2093090B30940905C
:10599000B4095090B5099101A201612F702F872D94
:1059A000962D0E9467E59F7781149104A104B104AC
:1059B00049F420E030E040E85FE30E9469ED87FFB2
:1059C0000BC008C020E030E040E450E40E94B0E7A3
:1059D000181614F446015701BFADBB2309F443C0A8
:1059E00027962CAD3DAD4EAD5FAD27972115310506
:1059F0004105510541F0D701C601821B930BA40B51
:105A0000B50BB7FD30C09101A20160966FAD6097F4
:105A100064967FAD649768968FAD68976C969FADDE
:105A20006C970E9467E520E030E040EC5FE30E9465
:105A300069ED87FD3CCFD701C601805A9541AF4F34
:105A4000BF4F27968CAF9DAFAEAFBFAF2797609685
:105A50002FAE609764963FAE649768964FAE689796
:105A60006C965FAE6C9780910002882309F41FCF7B
:105A700081149104A104B10429F4C12ED02EE72C85
:105A8000F62CE4CE90E1C91A97E2D90AE108F108B0
:105A9000C818D908EA08FB08F7FE09CFEECF83E55E
:105AA000DED6882319F048D78C0102C00FEF10E032
:105AB00080E5D5D6882311F03FD702C080E090E082
:105AC00098010F3F110519F010F02FEF30E0892BEE
:105AD00009F0C4C53093E1072093E007BFC580E516
