:100000000C94A5130C94D6130C94D6130C94D613FD
:100010000C94D6130C94D6130C94D6130C94D613BC
:100020000C94D6130C94D6130C94D6130C94D613AC
:100030000C94D6130C94D6130C94D6130C94D6139C
:100040000C94D6130C94BDB00C94D6130C94D61308
:100050000C94D6130C94D6130C948BB80C94907DFE
:100060000C94D6130C9442370C94D6130C94D613DC
:100070000C94D6130C94D6130C94D6130C94D6135C
:100080000C94D6130C94D6130C94D6130C94D6134C
:100090000C94D6130C94D6130C94D6130C94D6133C
:1000A0000C94D6130C94D6130C94D6130C94D6132C
:1000B0000C94D6130C94D6130C94D6130C94D6131C
:1000C0000C94D6130C94D6130C94D6130C94D6130C
:1000D0000C94D6130C94D6130C94D6130C94D613FC
:1000E0000C94D613CC7BCF7BBE7BC27BC87B067CBB
:1000F000D37BD77BDD7BE17BE57BEB7BEF7BF37B0E
:10010000067CF97BFD7B017CAC7CB17CB67CC07C41
:10011000CA7C437DD47CDC7CE47CEE7CF87C027D74
:10012000117D1B7D437D257D2F7D397DEFB8FFB887
:100130001EB92EB949B94EB951B956B959B95EB9B6
:1001400061B966B970B9084AD73B3BCE016E84BC31
:10015000BFFDC12F3D6C74319ABD56833DDA3D0021
:10016000C77F11BED9E4BB4C3E916BAAAABE00006A
:1001700000803F05A84CCDB2D44EB93836A9020C48
:1001800050B9918688083CA6AAAA2ABE0000008021
:100190003F00434F4D4D554E49434154494F4E004A
:1001A00044525952554E004552524F525300494EF7
:1001B000464F004543484F0047322F473320626186
:1001C0006420706172616D65746572730A00536CAE
:1001D0006565702E2E2E00473239206E6577205AC5
:1001E0005F6F66667365743A0028422961636B002D
:1001F000284629726F6E7400285229696768740056
:10020000284C296566740052756E6E696E672069A8
:100210006E204452592D52554E206D6F64650A0070
:10022000473239204175746F20426564204C6576F1
:10023000656C696E670A003F2856296572626F73A4
:1002400065204C6576656C20697320696D706C6102
:10025000757369626C652028302D34292E0A004799
:100260003330206E6577205A5F6F66667365743A27
:1002700000506C6561736520736574205A5F6F660A
:10028000667365743A00205A5F4D41585F504F5372
:100290003A2000206C6576656C5F6265645F763A33
:1002A0002000205A3A200020593A2000426564205C
:1002B000583A200047323800416E796375626963AD
:1002C0002072656164792E00526573756D696E6781
:1002D000207072696E74005761697420666F7220B5
:1002E000757365722E2E2E004E6F206D6F76652E03
:1002F00000456E642066696C65206C6973740A0041
:10030000426567696E2066696C65206C6973740A62
:10031000005344207072696E74696E67206279744C
:100320006520004E6F74205344207072696E7469AA
:100330006E670A00506C6561736520736574205A9E
:100340005F6F66667365743A0048656174696E67CD
:100350002E2E2E00416E796375626963207265618D
:1003600064792E00B301AE01A701A00192016F666E
:10037000660044454255473A004B494C4C45442E93
:1003800020006F6B0048656174696E6720646F6E52
:10039000652E003F0A0020573A0048656174696E77
:1003A000672E2E2E00416E79637562696320726537
:1003B0006164792E00416E796375626963204F66CE
:1003C000662E007A5F6D61783A20007A5F6D696E03
:1003D0003A2000795F6D61783A2000785F6D61782E
:1003E0003A20005265706F7274696E6720656E64A2
:1003F00073746F70207374617475730A004D3134B7
:100400003520533C696E6465783E206F7574206FAB
:10041000662072616E67652028302D31290A0053ED
:10042000657474696E672054726176656C204163EF
:1004300063656C65726174696F6E3A200053657410
:1004400074696E67205265747261637420416363DE
:10045000656C65726174696F6E3A200053657474DF
:10046000696E67205072696E7420416363656C65C4
:10047000726174696F6E3A200053657474696E67B7
:10048000205072696E7420616E64205472617665CA
:100490006C20416363656C65726174696F6E3A20AC
:1004A00000205A00205900580020204D61783A2041
:1004B00000205A00205900580020204D696E3A2033
:1004C000004F666600536F667420656E6473746FC8
:1004D00070733A200020643A0020693A0020703A94
:1004E0000043290A0061626C656420286D696E20F2
:1004F00074656D702000436F6C642065787472754C
:1005000064657320617265200023646566696E65A9
:10051000202044454641554C545F4B6420002364E1
:100520006566696E65202044454641554C545F4BD5
:1005300069200023646566696E6520204445464154
:10054000554C545F4B702000504944204175746FE6
:1005500074756E652066696E6973686564212050E4
:10056000757420746865206C617374204B702C2046
:100570004B6920616E64204B6420636F6E737461FD
:100580006E74732066726F6D2062656C6F77206980
:100590006E746F20436F6E66696775726174696F00
:1005A0006E2E680A00504944204175746F74756E50
:1005B00065206661696C6564212074696D656F757D
:1005C000740A00504944204175746F74756E65203B
:1005D0006661696C6564212054656D706572617433
:1005E00075726520746F6F20686967680A00204B18
:1005F000643A2000204B693A2000204B703A2000DA
:100600000A20436C617373696320504944200A00D7
:100610002054753A2000204B753A2000206D6178F7
:100620003A2000206D696E3A200020643A200020B4
:10063000626961733A200042696C696E656172207B
:1006400047726964206E6F742079657420637265E7
:10065000617465640A00426564204C6576656C6966
:100660006E6720004661696C656420746F20656E5A
:1006700061626C6520426564204C6576656C696ECC
:10068000670A004F666673657473206170706C69E9
:100690006564004572723A20546F6F206661722162
:1006A00000546F6F206661722066726F6D207265F4
:1006B000666572656E636520706F696E740A00000E
:1006C00000000000000000000087434E6F206361BF
:1006D0007365206C696768740A00416374697665A4
:1006E0002045787472756465723A2000556E6B6EA1
:1006F0006F776E20636F6D6D616E643A2022004EDD
:100700006F204C696E65204E756D62657220776949
:10071000746820636865636B73756D2C204C61731E
:1007200074204C696E653A20004B494C4C45442E70
:10073000200053544F505045442E20005072696E93
:100740007465722073746F707065642064756520C1
:10075000746F206572726F72732E204669782074F0
:100760006865206572726F7220616E6420757365B2
:10077000204D39393920746F207265737461727439
:100780002E202854656D70657261747572652069DC
:10079000732072657365742E20536574206974200C
:1007A00061667465722072657374617274696E67D4
:1007B000290A004E6F20436865636B73756D20775F
:1007C000697468206C696E65206E756D6265722C47
:1007D000204C617374204C696E653A200063686533
:1007E000636B73756D206D69736D617463682C2024
:1007F0004C617374204C696E653A20004C696E65DB
:10080000204E756D626572206973206E6F74204C86
:10081000617374204C696E65204E756D6265722B34
:10082000312C204C617374204C696E653A20004D68
:10083000313130004D3331004D38342058205920AB
:100840005A20450053442072656164206572726FBE
:10085000720A00446F6E65207072696E74696E670B
:100860002066696C650A0020496E76616C696420B7
:10087000657874727564657220004572726F7220BB
:1008800077726974696E6720746F20454550524FC6
:100890004D210A00206279746573290A005365743A
:1008A00074696E67732053746F7265642028004505
:1008B0004550524F4D20636865636B73756D206DB5
:1008C00069736D617463680A0020627974657329C5
:1008D0000A002073746F7265642073657474696EA6
:1008E00067732072657472696576656420280050AC
:1008F00072656865617420504C4120426564005007
:1009000072656865617420504C4100507265706179
:100910007265004D3530300053746F7265004D388C
:1009200035372046005A202D20302E31004D3835E5
:10093000372041005A202B20302E31005072657034
:10094000617265204C6576656C696E670047333669
:10095000004D656173757265205A20506F73004DAC
:1009600061696E004733330053746F7265005A201B
:100970004F6666736574005A204F6666736574002F
:100980004E6577205A204F6666736574004E657712
:10099000205A204F66667365740047333500426500
:1009A00067696E204C6576656C696E670041757489
:1009B0006F204C6576656C696E67204265640050F7
:1009C000726568656174204142532042656400503D
:1009D00072656865617420414253005072657061B0
:1009E000726500436F6F6C646F776E00507265685C
:1009F00065617420414253005072656865617420DE
:100A0000504C41004D38340044697361626C65207C
:100A10007374657070657273004D6F7665206178D0
:100A2000697300473238004175746F20686F6D65D7
:100A3000004D61696E004D6F76652058004D6F76F0
:100A4000652059004D6F7665205A0045787472759F
:100A5000646572004578747275646572004D6F76D6
:100A600065205A004D6F76652059004D6F766520E0
:100A700058004D6F766520617869730043616E6E32
:100A80006F7420656E746572207375626469723A62
:100A90002000052E2E004D61696E004361726420B6
:100AA00072656D6F766564004361726420696E7370
:100AB0006572746564006F6B0020746F6F206C6FDB
:100AC0006E6720657874727573696F6E20707265D9
:100AD00076656E7465640A0020636F6C64206578C7
:100AE00074727573696F6E2070726576656E746569
:100AF000640A004B494C4C45442E20004B494C4C59
:100B000045442E2000506C656173652072657365E5
:100B100074005052494E5445522048414C5445446B
:100B2000005072696E7465722068616C7465642E21
:100B3000206B696C6C28292063616C6C6564210AE8
:100B400000656E7175657565696E67202200576175
:100B5000726E696E673A20486F6D696E67204275E4
:100B60006D702044697669736F72203C20310A00F1
:100B70000000A0400000A0400000A0400000524340
:100B800000005243000087430101010000200023C0
:100B900000260029002C002F003200000100000375
:100BA00001060109010505050507050808080802F1
:100BB0000202020A0A0808040404040101010101F6
:100BC0000101010303030303030303040707070CE5
:100BD0000C0C0C0C0C0C0C0202020206060606069B
:100BE0000606060B0B0B0B0B0B0B0B010210202048
:100BF0000808102040102040800201020108040271
:100C000001010204081020408080402010080402E6
:100C1000018004020180402010080402010804023F
:100C20000101020408102040800102040810204045
:100C30008000000A0B02090C0D0E080703040100D6
:100C400000000000000000000000000000000000A4
:100C50000000000000000000000000000012111061
:100C60000000000000000000000000000000000084
:100C7000000000000000004B494C4C45442E200071
:100C8000202D20496E76616C6964206578747275D8
:100C9000646572206E756D62657220210A00414E96
:100CA000594355424943204B4F5353454C005765D8
:100CB0006C636F6D650057656C636F6D6500203107
:100CC0002E312E30002020506C616E6E65724275A0
:100CD0006666657242797465733A200020467265D3
:100CE00065204D656D6F72793A2000436F6D7069B4
:100CF0006C65643A204E6F762031332032303137C4
:100D00000A00207C20417574686F723A2028414E99
:100D1000594355424943204B4F5353454C2C2032A5
:100D20003031372F392F3138290A00323031362D02
:100D300031322D30362031323A303000204C617360
:100D40007420557064617465643A2000312E312E30
:100D5000300A004D61726C696E0020536F667477C3
:100D60006172652052657365740A0020576174636F
:100D700068646F672052657365740A002042726F61
:100D8000776E206F75742052657365740A00204574
:100D9000787465726E616C2052657365740A0050D8
:100DA0006F77657255700A0073746172740A004738
:100DB00031205A2B323000473931006572726F7220
:100DC0002077726974696E6720746F2066696C653C
:100DD0000A00456E6473746F707320256320256369
:100DE00020256320256300205A3A0020593A00202C
:100DF000583A00656E6473746F7073206869743A52
:100E00002000446F6E6520736176696E67206669A5
:100E10006C652E0A004D3239004D6F766520302EFC
:100E2000316D6D004D6F766520316D6D004D6F76C3
:100E3000652031306D6D00507265706172650052D1
:100E40006573746F7265206661696C7361666500B5
:100E50004C6F6164206D656D6F72790053746F72B1
:100E600065206D656D6F72790046696C616D656EA8
:100E700074004D6F74696F6E0054656D70657261BA
:100E800074757265004D61696E00507265686561C8
:100E9000742041425320636F6E660050726568652E
:100EA000617420504C4120636F6E66005049442DA0
:100EB00044005049442D44005049442D49005049B4
:100EC000442D49005049442D50005049442D5000B4
:100ED0002002204661637400200220466163740092
:100EE0002002204D6178002002204D617800200210
:100EF000204D696E002002204D696E004F6666002D
:100F00004F6E20004175746F74656D700046616EA0
:100F10002073706565640046616E2073706565645A
:100F20000042656400426564004E6F7A7A6C650029
:100F30004E6F7A7A6C6500436F6E74726F6C0053FB
:100F4000746F7265206D656D6F7279004265640023
:100F5000426564004E6F7A7A6C65004E6F7A7A6CE7
:100F6000650046616E2073706565640046616E20A1
:100F700073706565640054656D7065726174757237
:100F8000650025753A2530327500253032753A25D1
:100F9000303275002D2D2D005344005A0059005851
:100FA000000120000120007061757365004E6F2004
:100FB00053442063617264005072696E74206672DB
:100FC0006F6D2053440053746F70207072696E749B
:100FD00000526573756D65207072696E74005061A2
:100FE000757365207072696E7400436F6E74726FF2
:100FF0006C004175746F204C6576656C696E672076
:1010000042656400507265706172650054756E656A
:1010100000496E666F2073637265656E00466C6F83
:101020007700466C6F770046616E2073706565646B
:101030000046616E2073706565640042656400421D
:101040006564004E6F7A7A6C65004E6F7A7A6C65D3
:10105000005370656564005370656564004D616997
:101060006E0000002110422063308440A550C6600D
:10107000E770088129914AA16BB18CC1ADD1CEE155
:10108000EFF13112100273325222B5529442F772CC
:10109000D662399318837BB35AA3BDD39CC3FFF3A5
:1010A000DEE36224433420040114E664C774A444DC
:1010B00085546AA54BB528850995EEE5CFF5ACC5F5
:1010C0008DD55336722611163006D776F6669556AC
:1010D000B4465BB77AA719973887DFF7FEE79DD745
:1010E000BCC7C448E5588668A7784008611802283C
:1010F0002338CCC9EDD98EE9AFF9488969990AA995
:101100002BB9F55AD44AB77A966A711A500A333A0B
:10111000122AFDDBDCCBBFFB9EEB799B588B3BBBE4
:101120001AABA66C877CE44CC55C222C033C600C9B
:10113000411CAEED8FFDECCDCDDD2AAD0BBD688D34
:10114000499D977EB66ED55EF44E133E322E511EEB
:10115000700E9FFFBEEFDDDFFCCF1BBF3AAF599F84
:10116000788F8891A981CAB1EBA10CD12DC14EF124
:101170006FE18010A100C230E3200450254046708A
:101180006760B9839893FBA3DAB33DC31CD37FE3B5
:101190005EF3B1029012F322D232354214527762DA
:1011A0005672EAB5CBA5A89589856EF54FE52CD585
:1011B0000DC5E234C324A01481046674476424542A
:1011C0000544DBA7FAB79987B8975FE77EF71DC795
:1011D0003CD7D326F2369106B0165766767615467A
:1011E00034564CD96DC90EF92FE9C899E9898AB9E5
:1011F000ABA94458654806782768C018E1088238CA
:10120000A3287DCB5CDB3FEB1EFBF98BD89BBBABF4
:101210009ABB754A545A376A167AF10AD01AB32A19
:10122000923A2EFD0FED6CDD4DCDAABD8BADE89D44
:10123000C98D267C076C645C454CA23C832CE01C69
:10124000C10C1FEF3EFF5DCF7CDF9BAFBABFD98FD4
:10125000F89F176E367E554E745E932EB23ED10EB9
:10126000F01E7C3C3E5E2B3D3F2F5B5D3B2C2A22DB
:101270005C0000002100240027002A002D0030001F
:10128000330001010000040107010A0100002200EF
:10129000250028002B002E00310034000201000040
:1012A000050108010B014573746570732F6D6D00A6
:1012B0004573746570732F6D6D005A737465707328
:1012C0002F6D6D005A73746570732F6D6D005973B7
:1012D000746570732F6D6D005973746570732F6D25
:1012E0006D005873746570732F6D6D00587374655D
:1012F00070732F6D6D00412D74726176656C0041C5
:101300002D74726176656C00412D72657472616333
:101310007400412D7265747261637400416D61786F
:10132000204500416D6178204500416D6178205A6B
:1013300000416D6178205A00416D6178205900416B
:101340006D6178205900416D6178205800416D61D0
:10135000782058005654726176206D696E0056549C
:10136000726176206D696E00566D696E00566D690A
:101370006E00566D6178204500566D6178204500FD
:10138000566D6178205A00566D6178205A00566D6E
:101390006178205900566D6178205900566D61784A
:1013A000205800566D617820580056652D6A657288
:1013B0006B0056652D6A65726B00567A2D6A6572F0
:1013C0006B00567A2D6A65726B0056792D6A6572CC
:1013D0006B0056792D6A65726B0056782D6A6572BE
:1013E0006B0056782D6A65726B00416363656C0013
:1013F000416363656C005A204F6666736574005ADA
:10140000204F666673657400436F6E74726F6C0074
:1014100046696C2E204469612E0046696C2E20447A
:1014200069612E004F6666004F6E20004520696E90
:10143000206D6D3300436F6E74726F6C0020746F9B
:101440006F206C6F6E6720657874727573696F6E4C
:101450002070726576656E7465640A0020636F6C37
:101460006420657874727573696F6E20707265762A
:10147000656E7465640A000000D2420000D242002A
:101480000087430000D2C20000D2C200000000204A
:1014900064667361663A2000205A3A200020593A67
:1014A000200042656420583A2000203D3D3D3D002B
:1014B000202020200042696C696E656172204C65B5
:1014C00076656C696E6720477269643A0A2000206D
:1014D0006C6576656C5F6265645F76616C75653AB4
:1014E0000020453A00205A3A0020593A00583A0064
:1014F0006175746F25692E67004D3234004D3233AB
:101500002025730057726974696E6720746F2066B6
:10151000696C653A20006F70656E206661696C6564
:10152000642C2046696C653A20006F70656E2066F9
:1015300061696C65642C2046696C653A20004669D7
:101540006C652073656C65637465640A002053697B
:101550007A653A200046696C65206F70656E656437
:101560003A20006F70656E206661696C65642C209E
:1015700046696C653A20002066696C653A20004E29
:101580006F7720002220706F7300222070617265D7
:101590006E743A2200535542524F5554494E4520DD
:1015A00043414C4C207461726765743A22004B4988
:1015B0004C4C45442E2000747279696E6720746F1C
:1015C0002063616C6C207375622D67636F646520A6
:1015D00066696C6573207769746820746F6F206D1D
:1015E000616E79206C6576656C732E204D415820B4
:1015F0006C6576656C2069733A004572726F723A59
:101600000043616E6E6F74206F70656E207375623B
:101610006469722000473930004731205A2D32303A
:101620000070012C0190012701B0012201C0011DB1
:1016300001F00118011002130130020E01600209CD
:101640000190020401C002FF000003FA004003F50C
:10165000008003F000D003EB002004E6007004E1FA
:1016600000E004DC004005D700C005D2004006CDF4
:1016700000D006C8008007C3003008BE00F008B9DB
:1016800000C009B400B00AAF00B00BAA00D00CA58E
:1016900000000EA000500F9B00C010960050129149
:1016A0000000148C00C0158700B0178200B0197DAF
:1016B00000D01B7800001E730040206E009022694D
:1016C00000F024640040275F0090295A00E02B5569
:1016D00000102E500020304B0010324600E0334105
:1016E0000090353C001037370070383200A0392D9B
:1016F00000B03A2800A03B2300603C1E00103D19BA
:1017000000903D1400103E0F00703E0A00C03E05E0
:1017100000003F000073746F70002066697273747C
:10172000005A0059005800486F6D65200020666916
:101730007273740A005A0059005800486F6D652092
:10174000006563686F3A0072657365740073746155
:1017500072740053442063617264206F6B0A006FDF
:1017600070656E526F6F74206661696C65640A0003
:10177000766F6C756D652E696E6974206661696C33
:1017800065640A00534420696E6974206661696C5F
:101790000A0024F4D43050C38E20C2A24017828B9A
:1017A0007011127A910D816CD90AA861E108C758AD
:1017B0006607615143061E4B5D05C145A7041A41EA
:1017C0001104093D9803713931034036DB0265335A
:1017D0009102D4305402802E1D02632CEE01752A32
:1017E000C501B028A001102781018F2564012B2499
:1017F0004B01E0223401AC211F018D200D01801F1F
:10180000FC00841EED00971DDF00B81CD200E61B13
:10181000C600201BBC00641AB200B219A8000A1945
:10182000A0006A189900D117910040178B00B516D7
:10183000840031167E00B31579003A157300C71481
:101840006F0058146A00EE136600881363002513B6
:101850005E00C7125B006C12570015125400C111D4
:10186000510070114F0021114B00D61049008D100E
:1018700047004610440002104200C00F4000800F95
:101880003E00420F3C00060F3B00CB0E3800930E8B
:1018900037005C0E3500270E3400F30D3200C10D09
:1018A0003100900D3000600D2E00320D2D00050D21
:1018B0002C00D90C2B00AE0C2900850C29005C0CE7
:1018C0002700350C27000E0C2600E80B2400C40B63
:1018D0002400A00B23007D0B23005A0B2100390BA1
:1018E0002100180B2000F80A1F00D90A1E00BB0AAD
:1018F0001E009D0A1D00800A1D00630A1C00470A85
:101900001B002C0A1B00110A1A00F7091A00DD0936
:101910001900C4091900AB091900920917007B09C5
:101920001800630917004C09160036091600200933
:1019300016000A091500F5081500E0081400CC0887
:101940001400B8081400A4081400900813007D08BF
:1019500012006B08130058081200460812003408E1
:101960001100230811001208110001081100F007EE
:101970001000E0071000D0071000C0071000B007EB
:101980000F00A107100091070E0083070F007407D6
:101990000F0065070E0057070E0049070E003B07B2
:1019A0000D002E070E0020070D0013070D0006077F
:1019B0000D00F9060C00ED060D00E0060C00D40643
:1019C0000C00C8060C00BC060C00B0060C00A406F7
:1019D0000B0099060C008D060B0082060B007706A3
:1019E0000B006C060B0061060A0057060B004C0644
:1019F0000A0042060A0038060A002E060A002406DB
:101A00000A001A060A001006090007060A00FD056A
:101A10000900F4050900EB050900E2050900D905F4
:101A20000900D0050900C7050900BE050900B50574
:101A30000800AD050800A50509009C0508009405EF
:101A400008008C050800840508007C050800740562
:101A500008006C050700650508005D0507005605D0
:101A600008004E0507004705070040050800380537
:101A70000700310507002A050700230507001C059C
:101A80000600160507000F050700080506000205F9
:101A90000700FB040600F5040700EE040600E80456
:101AA0000600E2040700DB040600D5040600CF04AC
:101AB0000600C9040600C3040600BD040600B704FE
:101AC0000600B1040500AC040600A6040600A0044C
:101AD00005009B04060095040500900406008A0496
:101AE000050085040500800406007A0405007504DD
:101AF0000500700405006B04050066040500610420
:101B000005005C04050057040500520405004D045F
:101B1000050048040500430405003E0404003A049F
:101B2000050035040500300404002C0405002704DA
:101B30000400230405001E0404001A040400160413
:101B40000500110404000D04040009040500040448
:101B5000040000040400FC030400F8030400F40380
:101B60000400F0030400EC030400E8030400E403B1
:101B70000400E0030400DC030400D8030400D403E1
:101B80000400D0030400CC030400C8030300C50311
:101B9000030024F404D9201BC40C5C0E9804C4096F
:101BA0005F0265077101F405F900FB04B300480406
:101BB0008700C10369005803550003034500BE02B6
:101BC0003A008402310053022A002902250004024F
:101BD0002000E4011C00C8011900AF0117009801A2
:101BE0001400840113007101100061011000510103
:101BF0000E0043010D0036010B002B010B002001EC
:101C00000B00150109000C01090003010800FB008D
:101C10000800F3000800EB000700E4000600DE0007
:101C20000600D8000600D2000600CC000500C70060
:101C30000500C2000500BD000400B9000400B500A5
:101C40000400B1000400AD000400A9000400A500D8
:101C50000300A20003009F0004009B000300980003
:101C600003009500020093000300900003008D0024
:101C700002008B000300880002008600020084003E
:101C80000300810002007F0002007D0002007B0053
:101C90000200790002007700010076000200740063
:101CA000020072000100710002006F0002006D006E
:101CB00001006C0002006A00010069000200670078
:101CC000010066000100650001006400020062007E
:101CD000010061000100600001005F0002005D0082
:101CE00001005C0001005B0001005A000100590086
:101CF0000100580001005700010056000100550086
:101D00000100540001005300000053000100520084
:101D1000010051000100500001004F0001004E0081
:101D200000004E0001004D0001004C0001004B007E
:101D300000004B0001004A0001004900010048007A
:101D40000000480001004700010046000000460076
:101D5000010045000000450001004400010043006F
:101D60000000430001004200000042000100410069
:101D7000000041000100400001003F0000003F0062
:101D800001003E0000003E0001003D0000003D005B
:101D900001003C0000003C0000003C0001003B0052
:101DA00000003B0001003A0000003A000100390049
:101DB0000000390001003800000038000000380041
:101DC0000100370000003700010036000000360037
:101DD000000036000100350000003500000035002D
:101DE0000100340000003400000034000100330022
:101DF0000000330000003300010032000000320018
:101E0000000032000100310000003100000031000C
:101E100001003000000030000000300001002F0001
:101E200000002F0000002F0000002F0001002E00F6
:101E300000002E0000002E0001002D0000002D00EB
:101E400000002D0000002D0001002C0000002C00DF
:101E500000002C0000002C0001002B0000002B00D3
:101E600000002B0000002B0001002A0000002A00C7
:101E700000002A0000002A000100290000002900BB
:101E800000002900000029000000290001002800AE
:101E900000002800000028000000280000002800A2
:101EA0000100270000002700000027000000270095
:101EB0000000270001002600000026000000260088
:101EC000000026000000260001002500000025007B
:101ED000000025000000250000002500000025006E
:101EE0000100240000002400000024000000240061
:101EF0000000240001002300000023000000230054
:101F00000000230000002300000023000000230045
:101F10000100220000002200000022000000220038
:101F2000000022000000220001002100000021002A
:101F3000000021000000210000002100000021001D
:101F4000000021000100200000002000000020000F
:101F50000000200000002000000020000000200001
:101F60000000200001001F0000001F0000001F00F3
:101F700000001F0000001F0000001F0000001F00E5
:101F800001001E0000001E0000001E0000001E00D8
:101F900000004D383420582059205A204500205A3E
:101FA0003A0020593A0020436F756E7420583A2049
:101FB0000028290A0053746F7077617463683A3A95
:101FC000006265640A002C2073797374656D207358
:101FD000746F7070656421204865617465725F4933
:101FE000443A20004572723A204D494E54454D50B6
:101FF000004D494E54454D502074726967676572B3
:102000006564004572723A204D415854454D502048
:10201000424544004572723A204D415854454D5056
:10202000004D415854454D50207472696767657280
:1020300065640020706F736974696F6E206F7574CA
:10204000206F662072616E67652E0A003F50726FC6
:10205000626520004733300047323800473238008D
:1020600047323900473238004D3838380047323867
:1020700000473239004732380046696C6520646594
:102080006C657465643A0044656C6574696F6E20B4
:102090006661696C65642C2046696C653A20006F46
:1020A00070656E206661696C65642C2046696C659C
:1020B0003A20002569730025696D20256973002584
:1020C00069682025696D20256973002569642025CC
:1020D00069682025696D20256973002569792025A7
:1020E0006964202569682025696D20256973005081
:1020F00072696E742074696D653A200050726F7455
:1021000065637465642050696E0A002042403A009D
:1021100020403A00202F0020423A00202F00205477
:102120003A0042656420646F6E652E003F0A00200D
:10213000573A004265642048656174696E672E00F5
:1021400020453A00205A3A0020593A00583A0046B1
:1021500049524D574152455F4E414D453A4D61728E
:102160006C696E20312E312E30416E796375626953
:102170006320534F555243455F434F44455F55528B
:102180004C3A2050524F544F434F4C5F5645525398
:10219000494F4E3A312E30204D414348494E455F1C
:1021A000545950453A416E796375626963204558C8
:1021B0005452554445525F434F554E543A31205581
:1021C0005549443A63656465326132662D34316144
:1021D000322D343734382D396231322D6335356341
:1021E00036326633363766660A003A20007A5F6D0B
:1021F00061783A20007A5F6D696E3A20005A204F6C
:102200006666736574005374616E64617264204421
:102210006576696174696F6E3A20002052616E675D
:10222000653A2000204D61783A2000204D696E3AD1
:1022300020004D65616E3A200046696E69736865DD
:102240006421002072616E67653A2000206D61781C
:102250003A2000206D696E3A2000207369676D6135
:102260003A2000206D65616E3A20003A207A3A20CB
:1022700000206F662000205A002059002058004797
:102280006F696E6720746F3A002C200050756C6C7B
:10229000696E6720706F696E7420746F7761726405
:1022A000732063656E7465723A00436C6F636B777D
:1022B0006973650A00436F756E7465722D00204462
:1022C0006972656374696F6E3A2000202020616E28
:1022D000676C653A20005374617274696E6720728E
:1022E00061646975733A2000506F736974696F6E29
:1022F000696E67207468652070726F62652E2E2E7D
:102300000A003F4E756D626572206F66206C6567CE
:102310007320696E206D6F76656D656E74206E6FCB
:102320007420706C61757369626C652028302D3182
:1023300035292E0A003F2028582C5929206C6F631C
:102340006174696F6E206F757473696465206F6660
:102350002070726F626561626C652072616469757C
:10236000732E0A003F53616D706C652073697A6546
:10237000206E6F7420706C61757369626C652028C3
:10238000342D3530292E0A004D3438205A2D507204
:102390006F6265205265706561746162696C697411
:1023A0007920546573740A003F566572626F7365D5
:1023B000204C6576656C206E6F7420706C6175734F
:1023C00069626C652028302D34292E0A004861721C
:1023D00064636F6465642044656661756C74205342
:1023E000657474696E6773204C6F616465640A007C
:1023F00020204D383531205A005A2D50726F6265B9
:10240000204F666673657420286D6D293A0A002096
:10241000204D3230302044300A0020204D32303000
:102420002044002044697361626C65640A00466957
:102430006C616D656E742073657474696E67733A50
:102440000020440020490020204D3330312050002E
:102450005049442073657474696E67733A0A0020AA
:10246000460020420020480020204D3134352053C2
:10247000004D6174657269616C2068656174757086
:1024800020706172616D65746572733A0A00204351
:102490000020420020410020530020520020204D07
:1024A000363635204C0044656C7461207365747455
:1024B000696E67733A204C3D646961676F6E616C49
:1024C0005F726F642C20523D7261646975732C20B9
:1024D000533D7365676D656E74735F7065725F738E
:1024E00065636F6E642C204142433D646961676F90
:1024F0006E616C5F726F645F7472696D5F746F7729
:1025000065725F5B3132335D0A00205A002059004A
:1025100020204D363636205800456E6473746F7037
:102520002061646A7573746D656E7420286D6D2901
:102530003A0A0020204D3432302053004175746F28
:1025400020426564204C6576656C696E673A0A00C6
:10255000205A0020590020204D32303620580048A3
:102560006F6D65206F666673657420286D6D290A2E
:1025700000204500205A0020590020580020420029
:1025800020540020204D32303520530041647661C4
:102590006E636564207661726961626C65733A206E
:1025A000533D4D696E2066656564726174652028CF
:1025B0006D6D2F73292C20543D4D696E207472610E
:1025C00076656C20666565647261746520286D6D42
:1025D0002F73292C20423D6D696E696D756D2073D6
:1025E00065676D656E742074696D6520286D73294B
:1025F0002C20583D6D6178696D756D205859206AA1
:1026000065726B20286D6D2F73292C20205A3D6D2B
:102610006178696D756D205A206A65726B20286D2E
:102620006D2F73292C2020453D6D6178696D756D86
:102630002045206A65726B20286D6D2F73290A0072
:1026400020540020520020204D32303420500041D0
:102650006363656C65726174696F6E733A20503D97
:102660007072696E74696E672C20523D7265747267
:1026700061637420616E6420543D74726176656C90
:102680000A00204500205A0020590020204D3230F9
:10269000312058004D6178696D756D204163636527
:1026A0006C65726174696F6E20286D6D2F733229AD
:1026B0003A0A00204500205A0020590020204D32BF
:1026C00030332058004D6178696D756D2066656501
:1026D00064726174657320286D6D2F73293A0A0046
:1026E000204500205A0020590020204D3932205822
:1026F0000053746570732070657220756E69743A4A
:102700000A00526573656E643A20004E414E494E90
:10271000495459494E46CDCCCC3D0AD7233C17B736
:10272000D13877CC2B329595E6241FB14F0A0000A3
:1027300020410000C84200401C4620BCBE4CCA1BC1
:102740000E5AAEC59D7477E11EDA11241FBECFEF7D
:10275000D1E2DEBFCDBF00E00CBF14E0A0E0B2E0EC
:10276000E2E5F3EE01E00BBF02C007900D92A43B3F
:10277000B107D9F725E1A4EBB4E001C01D92A13E59
:10278000B207E1F713E1C4EAD3E100E006C0219704
:102790000109802FFE010E9455E5C33AD10780E070
:1027A0000807A9F70E94A8DA0C9497F10C9400008E
:1027B0002F923F924F925F926F927F928F929F9251
:1027C000AF92BF92CF92DF92EF92FF920F931F933F
:1027D000CF93DF93CDB7DEB7C257D1090FB6F894C8
:1027E000DEBF0FBECDBF0091730820E6029F8001BF
:1027F00011240D50194F1093C3040093C20480910B
:10280000E41380FF18C0E1E4F7E184917F013FEF1A
:10281000E31AF30A882321F00E94A832F701F5CFCA
:10282000D8018D918D01882319F00E94A832F8CF2C
:102830008AE00E94A8322091C2043091C304F901B9
:1028400080812F5F3F4F8032D1F3F093C304E09338
:10285000C2048E3469F0F090C204E090C3046AE2CE
:1028600070E08F2D9E2D0E948AE80097D1F420C041
:10287000818190ED980F9A3010F08D3261F7329689
:10288000DF0131962C9120532A30D0F3CD01FC0189
:10289000019620812032D9F3F093C304E093C2045F
:1028A000DACFFC0131968291803231F08A3221F008
:1028B000AF2DBE2D9D9102C01082F5CFFD0180810C
:1028C00011968032D9F380538A3010F00C94FA2F8D
:1028D00020E030E06AE0629FA001639F500D112468
:1028E0009A01205331098191280F311D87FD3A95B6
:1028F000808180538A3078F38F013196D8018C9192
:102900008032D1F31093C0040093BF049D3411F4BE
:102910000C94971E943511F40C944D2E973411F0AD
:102920000C94FA2F2E31310509F4F0C7B0F424309D
:10293000310538F48091AB022230310508F444C0EF
:102940004DC02C31310509F42BC208F035C22430BA
:10295000310509F4E3C10C946C2E2832310509F4D9
:102960001BC2B8F42332310509F41EC224323105EA
:1029700009F41EC22132310511F00C946C2E84EB47
:1029800092E09093930B8093920B0E94AB310C9446
:102990006C2E2A35310511F40C94E81D48F42932C7
:1029A000310511F00C946C2E0E94EA6C0C946C2E84
:1029B0002B35310511F40C94EC1D2C35310511F437
:1029C0000C94F11D0C946C2E882311F40C946C2E35
:1029D0000E94F8950E947F600C946C2E882311F45D
:1029E0000C946C2E11E02230310509F010E00E94A9
:1029F000F89519821A821B821C821D821E821F82F8
:102A0000188682E50E94C030882309F438C10E94EC
:102A10005D316B017C012091FF0E3091000F4091E0
:102A2000010F5091020F2AA73BA74CA75DA78090EA
:102A3000030F9090040FA090050FB090060F8091A7
:102A4000EF0E9091F00EA091F10EB091F20E8EABC0
:102A50009FABA8AFB9AF2091F30E3091F40E409127
:102A6000F50E5091F60E2AAB3BAB4CAB5DAB20E0C4
:102A700030E0A901C701B6010E945FED882309F487
:102A800014C12AA53BA54CA55DA56EA97FA988AD5B
:102A900099AD0E945FED81110BC0A50194016AA957
:102AA0007BA98CA99DA90E945FED882309F4FDC034
:102AB00020E030E0A901C701B6010E945FED881F48
:102AC0008827881F18130BC080E090E0A0E8BFE3C0
:102AD00026968CAF9DAFAEAFBFAF26970AC020E061
:102AE00030E040E85FEB26962CAF3DAF4EAF5FAFD6
:102AF00026972AA53BA54CA55DA56EA97FA988AD03
:102B000099AD0E945DE522966CAF7DAF8EAF9FAF11
:102B10002297A50194016AA97BA98CA99DA90E946D
:102B20005DE56AAF7BAF8CAF9DAF22962CAD3DAD1E
:102B30004EAD5FAD2297CA01B9010E94C4ED2B01D1
:102B40003C012AAD3BAD4CAD5DADCA01B9010E945F
:102B5000C4ED9B01AC01C301B2010E945EE50E947D
:102B6000EFE76EA77FA788AB99AB20E030E040E0AD
:102B70005FE30E94C4ED2B013C01A7019601C70150
:102B8000B6010E94C4ED6B017C01A3019201C30157
:102B9000B2010E94C4ED9B01AC01C701B6010E94C5
:102BA0005DE50E94EFE79B01AC0126966CAD7DAD23
:102BB0008EAD9FAD26970E94C4ED6B017C012EA9BE
:102BC0003FA948AD59AD6AA57BA58CA59DA50E94DE
:102BD0005EE520E030E040E05FE30E94C4ED2B01C1
:102BE0003C016AAD7BAD8CAD9DAD90582EA53FA547
:102BF00048A959A90E944AE69B01AC01C701B60148
:102C00000E94C4ED9B01AC01C301B2010E945EE5CC
:102C10002AA53BA54CA55DA50E945DE569837A8345
:102C20008B839C832AA93BA94CA95DA9C501B4014A
:102C30000E945EE520E030E040E05FE30E94C4EDEA
:102C40002B013C012EA53FA548A959A922966CADA0
:102C50007DAD8EAD9FAD22970E944AE69B01AC01EF
:102C6000C701B6010E94C4ED9B01AC01C301B201D2
:102C70000E945EE5A50194010E945DE512C089E411
:102C80000E94C030882331F00E945D3169837A83CD
:102C90008B839C838AE40E94C030882331F00E9499
:102CA0005D316D837E838F83988720E030E0A901BA
:102CB00069817A818B819C810E945FED81110BC0BB
:102CC00020E030E0A9016D817E818F8198850E948E
:102CD0005FED882349F0612FCE0101960E940BAC75
:102CE0000E949D320C946C2EEAEFF5E184918F01E5
:102CF0000F5F1F4F882321F00E94A832F801F6CF02
:102D0000E8EBF1E084918F010F5F1F4F882311F4EE
:102D10000C946C2E0E94A832F801F4CF80E50E943A
:102D2000C030882329F00E9452316B017C0103C01E
:102D3000C12CD12C760183E50E94C030882321F07C
:102D40000E9486316B017C010E9479B00E949D3205
:102D50008091A2069091A306A091A406B091A50629
:102D6000C80ED91EEA1EFB1E80915802811105C0B3
:102D700060E08EEC91E00E9426820E94847DDC015E
:102D8000CB018C199D09AE09BF09B7FD02C00C9497
:102D90006C2E0E949B56F1CF0E94EE6C0C946C2E10
:102DA0000E94DE9C0C946C2E0E944AC20C946C2EE5
:102DB0000E94A0C00C946C2E81E08093BE040E94FF
:102DC000E6A5811148C486E50E94C030882329F019
:102DD0000E943A319FAF8EAF04C041E050E05FAF38
:102DE0004EAF8EAD9FAD059768F0E7E3F2E08491BA
:102DF0008F010F5F1F4F882309F42DC40E94A83252
:102E0000F801F5CF84E40E94C0308EAB85E40E94C7
:102E1000C03060968FAF6097AEADBFADAB2BD9F031
:102E2000E0E2F2E084918F010F5F1F4F882321F0D1
:102E30000E94A832F801F6CFBEA9BB2361F0E7E0FB
:102E4000F2E084918F010F5F1F4F882321F00E94D1
:102E5000A832F801F6CF83E50E94C030882349F0FC
:102E60000E945D3120E030E040E752E40E944AE6F3
:102E700004C060E070E088EC92E46093000270931C
:102E8000010280930202909303028CE40E94C030FE
:102E9000882319F00E945D3118C020E030E04CEB2F
:102EA00052E46091E20E7091E30E8091E40E9091F5
:102EB000E50E0E945DE52091D60E3091D70E40912F
:102EC000D80E5091D90E0E945EE50E94BBE67BA70A
:102ED0006AA782E50E94C030882319F00E945D3104
:102EE00018C020E030E04CEC52E46091E20E7091AA
:102EF000E30E8091E40E9091E50E0E945EE5209134
:102F0000D60E3091D70E4091D80E5091D90E0E9416
:102F10005EE50E94BBE68B0186E40E94C0308823F8
:102F200019F00E945D3118C020E030E04EEA52E412
:102F30006091E60E7091E70E8091E80E9091E90E97
:102F40000E945DE52091DA0E3091DB0E4091DC0E9F
:102F50005091DD0E0E945EE50E94BBE61B0182E4FB
:102F60000E94C030882319F00E945D3118C020E013
:102F700030E042EB52E46091E60E7091E70E8091F2
:102F8000E80E9091E90E0E945EE52091DA0E3091F4
:102F9000DB0E4091DC0E5091DD0E0E945EE50E943A
:102FA000BBE67BAB6AABEAA5FBA5BF01FF0F880BB5
:102FB000990B0E9465ED26966CAF7DAF8EAF9FAFEB
:102FC00026978090E20E9090E30EA090E40EB090D1
:102FD000E50EC090D60ED090D70EE090D80EF090AF
:102FE000D90E20E030E042ED52E4C501B4010E9468
:102FF0005DE5A70196010E945EE59B01AC01269666
:103000006CAD7DAD8EAD9FAD26970E945FED87FDC7
:103010000FC0F1E02796FFAF2797C80143972AA575
:103020003BA52817390744F427961FAE279704C0FD
:1030300031E027963FAF2797B801012E000C880B8F
:10304000990B0E9465ED2B013C0120E030E042ED40
:1030500052E4C501B4010E945EE5A70196010E94F9
:103060005EE59B01AC01C301B2010E94A6E7181600
:1030700054F041E04EA78AA59BA54396801791077F
:1030800024F41EA602C051E05EA7B101032C000C7F
:10309000880B990B0E9465ED2B966CAF7DAF8EAFC0
:1030A0009FAF2B978090E60E9090E70EA090E80ED1
:1030B000B090E90EC090DA0ED090DB0EE090DC0EFE
:1030C000F090DD0E20E030E042ED52E4C501B401A5
:1030D0000E945DE5A70196010E945EE59B01AC019F
:1030E0002B966CAD7DAD8EAD9FAD2B970E945FEDA5
:1030F00087FD0AC081E08AAF8AA99BA94397281659
:10310000390624F41AAE02C091E09AAFAAA9BBA96D
:10311000BD01BB0F880B990B0E9465ED2B013C0193
:1031200020E030E042ED52E4C501B4010E945EE5CA
:10313000A70196010E945EE59B01AC01C301B201AB
:103140000E94A6E7FF24F394181644F0C1014396A9
:10315000EAA9FBA98E179F070CF4F12C2796FFAD67
:103160002797F1110EC02EA5222329F088EF91E0B8
:103170000E94F5E40DC03AAD31110AC0F1100FC044
:1031800016C080E092E00E94F5E44EA54111EECF1A
:103190005AAD552321F080EF91E00E94F5E4FF2025
:1031A00009F459C289EE91E00E94F5E454C20E94EC
:1031B00079B080914E098EA710924E099EA9911167
:1031C0000AC00E94DE588AEA96E00E94E0950E94BA
:1031D00035550E940E320E942E9881E00E94D799A8
:1031E000882321F0AEA5A0934E0935C21CA21DA2D2
:1031F0001EA21FA218A219A21AA21BA2EAA5FBA531
:103200000E1B1F0B17FF02C0095F1F4F83E01595B0
:1032100007958A95E1F7B801012E000C880B990BF0
:103220000E9465ED2F966CAF7DAF8EAF9FAF2F974D
:10323000EAA8FBA8E218F308F7FE03C0F7E0EF0ED8
:10324000F11CB3E0F594E794BA95E1F7B7010F2CC0
:10325000000C880B990B0E9465ED2B013C018AE55F
:103260000E94C03081110E945D316091770670919B
:103270007806072E000C880B990B0E9465ED9B01C8
:10328000AC012F966CAD7DAD8EAD9FAD2F970E949A
:103290005FED811123C06091790670917A06072E47
:1032A000000C880B990B0E9465ED9B01AC01C301DA
:1032B000B2010E945FED811111C08091730690915F
:1032C00074062AA53BA52817390741F48091750695
:1032D000909176062816390609F44EC03EA5309323
:1032E0004E090E94DD971093780600937706F092BE
:1032F0007A06E09279062091E20E3091E30E409139
:10330000E40E5091E50E26966CAD7DAD8EAD9FAD71
:1033100026970E945DE52091D60E3091D70E409100
:10332000D80E5091D90E0E945DE50E94BBE67093C5
:103330007406609373062091E60E3091E70E40917B
:10334000E80E5091E90E2B966CAD7DAD8EAD9FAD24
:103350002B970E945DE52091DA0E3091DB0E4091B3
:10336000DC0E5091DD0E0E945DE50E94BBE670937D
:103370007606609375061EA641E04AAB1BA61AA608
:1033800051E05AAF89E027968FAF2797312CDE01A5
:103390001196B9A7A8A781E04AA948274AAB8AA5F0
:1033A0009BA5092E000CAA0BBB0B64968CAF9DAF9E
:1033B000AEAFBFAF649727962FAD2797321609F4AB
:1033C000CEC0632D032C000C770B880B990B0E9449
:1033D00065ED9B01AC012F966CAD7DAD8EAD9FADC3
:1033E0002F970E94C4ED9B01AC0126966CAD7DAD7C
:1033F0008EAD9FAD26970E945EE56B017C016496C1
:103400006CAD7DAD8EAD9FAD64970E9465ED9B0167
:10341000AC01C301B2010E94C4ED9B01AC012B962B
:103420006CAD7DAD8EAD9FAD2B970E945EE54B01DF
:103430005C0120E030E0A901C701B6010E945FED08
:1034400087FD05C020E030E040E05FE303C020E0FE
:1034500030E0A901C701B6010E945EE50E94F0E6D6
:103460006B017C016CA37DA38EA39FA320E030E0C1
:10347000A901C501B4010E945FED87FD05C020E0F0
:1034800030E040E05FE303C020E030E0A901C50187
:10349000B4010E945EE50E94F0E668A379A38AA3C6
:1034A0009BA3A8A5B9A5ECE01D92EA95E9F7C9820E
:1034B000DA82EB82FC826D837E838F839887CE01D4
:1034C00001960E94A2AB882309F446C02EAD3FAD01
:1034D00060964FAD6097BE01605E7F4FCE018496CF
:1034E0000E94209A29E0332D3203800111244AA53D
:1034F0005BA5040F151F000F111F000F111F015DA9
:103500001A4F209144023091450240914602509159
:1035100047020E945EE5D8016D937D938D939C9345
:10352000139707ED11E0F8018491882329F00F5FCC
:103530001F4F0E94A832F7CF60914402709145025C
:10354000809146029091470242E00E949B368AE0B9
:103550000E94A8320E949B56FAAD3F0E2CCF4AA57E
:103560005BA54F5F5F4F5BA74AA749305105A1F0AC
:10357000BAA9B11109C0EFEFEAAFFFEF2796FFAF8D
:103580002797A8E03A2E07CF21E02AAF39E0279607
:103590003FAF2797312CFFCE80E00E94D799882338
:1035A00021F05EA550934E0956C00E9414988EA932
:1035B000811124C014E0E8E0EE2E04E0FE2CF11AA4
:1035C000DE2CD01A21E041E0602F812F0E94EFDF36
:1035D00021E04FEF602F8F2D0E94EFDF2FEF41E0B2
:1035E0006D2D812F0E94EFDF2FEF4FEF6D2D8F2D6F
:1035F0000E94EFDF015020F71150F8F60E94069765
:103600009EA991111BC081E080932E058FEF9EE053
:103610000E94A75E9B01AC016091070F7091080F9B
:103620008091090F90910A0F0E945DE56093070F4A
:103630007093080F8093090F90930A0F0E94BCC7E4
:10364000AEA9AA2311F08EA501C081E080934E0996
:1036500081110E940E3281E08093441580903705DD
:1036600090903805A0903905B0903A0520913B051F
:1036700030913C0540913D0550913E05C501B40196
:103680000E945DE59B01AC01C501B4010E945EE5AD
:103690006B017C016093330570933405809335058D
:1036A00090933605A50194010E945DE59B01AC0154
:1036B000C701B6010E945EE560932F057093300547
:1036C000809331059093320580904705909048058E
:1036D000A0904905B0904A052091430530914405DA
:1036E0004091450550914605C501B4010E945DE534
:1036F0009B01AC01C501B4010E945EE56B017C0138
:1037000060934B0570934C0580934D0590934E0547
:10371000A50194010E945DE59B01AC01C701B601C2
:103720000E945EE560934F057093500580935105AC
:1037300090935205C0905705D0905805E0905905D8
:10374000F0905A0520915B0530915C0540915D0534
:1037500050915E05C701B6010E945DE59B01AC0179
:10376000C701B6010E945EE560935305709354054E
:103770008093550590935605C0906F05D0907005C5
:10378000E0907105F090720520916B0530916C0509
:1037900040916D0550916E05C701B6010E945DE52F
:1037A0009B01AC01C701B6010E945EE56093730501
:1037B000709374058093750590937605C0902F06DD
:1037C000D0903006E0903106F0903206209133061A
:1037D000309134064091350650913606C701B60146
:1037E0000E945DE59B01AC01C701B6010E945EE548
:1037F00060932B0670932C0680932D0690932E06D3
:103800008090570690905806A0905906B0905A069E
:1038100020915B0630915C0640915D0650915E06FA
:10382000C501B4010E945DE59B01AC01C501B40175
:103830000E945EE56B017C01609353067093540611
:103840008093550690935606A50194010E945DE56C
:103850009B01AC01C701B6010E945EE560934F0673
:10386000709350068093510690935206809067069D
:1038700090906806A0906906B0906A062091630651
:10388000309164064091650650916606C501B40109
:103890000E945DE59B01AC01C501B4010E945EE59B
:1038A0006B017C0160936B0670936C0680936D06D0
:1038B00090936E06A50194010E945DE59B01AC0109
:1038C000C701B6010E945EE560936F0670937006B3
:1038D00080937106909372060E94FE3764EF71E048
:1038E00080E090E00E944C7D0E9467D464E670E026
:1038F00080E090E00E944C7D0E94643A64E670E0B3
:1039000080E090E00E944C7D0C946C2E88E50E9433
:10391000C030882319F00E945D310DC020E030E0F6
:10392000A9016091FF0E7091000F8091010F90919D
:10393000020F0E945EE56CA37DA38EA39FA389E581
:103940000E94C030882319F00E945D310DC020E034
:1039500030E0A9016091030F7091040F8091050F71
:103960009091060F0E945EE568A379A38AA39BA3AA
:103970000CA11DA12EA13FA109831A832B833C8397
:103980006D837E838F83988720E030E0A90160916A
:10399000EA0E7091EB0E8091EC0E9091ED0E0E946C
:1039A0005EE52091DE0E3091DF0E4091E00E5091E9
:1039B000E10E0E945EE569877A878B879C87CE013E
:1039C00001960E94A2AB882311F40C946C2E83E51F
:1039D0000E94C030882321F00E940231482F01C08C
:1039E00041E080E0E3964FAFE3970E94AC970E94DE
:1039F0002E9821E030E0E3964FADE397BE01605E84
:103A00007F4FCE0184960E94209A6B017C010E9418
:103A1000BCC7ECEAF2E084918F010F5F1F4F88234F
:103A200021F00E94A832F801F6CF27E137EB41EDF3
:103A300058E36CA17DA18EA19FA10E945EE542E0AA
:103A40000E949B36E7EAF2E084918F010F5F1F4FDF
:103A5000882321F00E94A832F801F6CF27E137EB46
:103A600041ED58E368A179A18AA19BA10E945EE57E
:103A700042E00E949B36E2EAF2E084918F010F5F00
:103A80001F4F882321F00E94A832F801F6CF27E1CA
:103A900037EB41ED58E3C701B6010E945EE542E015
:103AA0000E949B368AE00E94A832E3E9F2E084910A
:103AB0008F010F5F1F4F882321F00E94A832F80169
:103AC000F6CF8090B4049090B504A090B604B09066
:103AD000B70427E137EB41ED58E3C501B4010E947B
:103AE0005EE542E00E949B368AE00E94A832E6E84A
:103AF000F2E084918F010F5F1F4F882321F00E9415
:103B0000A832F801F6CF42E063E070E087E893E482
:103B10000E949B368AE00E94A83220E030E047E80D
:103B200053E4C501B4010E945DE5A70196010E941E
:103B30005EE527E137EB41ED58E30E945EE59B012E
:103B4000AC0160E070E0CB010E945DE560937F0610
:103B5000709380068093810690938206E1E7F2E0FD
:103B600084918F010F5F1F4F882321F00E94A8329C
:103B7000F801F6CF60917F067091800680918106F2
:103B80009091820642E00E949B368AE00E94A83211
:103B9000EFE5F2E084918F010F5F1F4F882321F042
:103BA0000E94A832F801F6CF60914402709145025C
:103BB000809146029091470242E00E949B368AE043
:103BC0000E94A8320E9414980E94BCC70C946C2ECC
:103BD0001092BD040C946C2E81E08093BD040C9473
:103BE0006C2E85E40E94C030B82E811102C00E9464
:103BF00079B05DEF852E52E0952E6FEFC62E6EE008
:103C0000D62E76EDE72E7EE0F72E00E010E0A12C18
:103C1000F40181914F010E94C0308823E1F1D60167
:103C20002D913D914D915C91E0962FAFE097E196FB
:103C30003FAFE197E3964FAFE397E2965FAFE2972E
:103C40000E945D31F6016083718382839383E096E5
:103C50002FADE097E1963FADE197E3964FADE39747
:103C6000E2965FADE29703301105A9F00E945DE591
:103C70009B01AC01D7016D917D918D919C910E942A
:103C80005EE5F7016083718382839383C8010E949C
:103C9000CD9BAA24A3940F5F1F4FF4E0CF0ED11C3D
:103CA00024E0E20EF11C0430110509F0B1CFAA2086
:103CB00019F00E940E3237C0BB20A9F1C0900B0F43
:103CC000D0900C0FE0900D0FF0900E0F2091030993
:103CD000309104094091050950910609C701B601C8
:103CE0000E94C4ED0E94B1E76093D00B7093D10B9A
:103CF0008093D20B9093D30BC701B6010E94BBE611
:103D00002FB7F8946093E0137093E1138093E2135C
:103D10009093E3132FBF1092C00B1092C10B10921F
:103D2000C20B1092C30B0E94BCC70C946C2E25379B
:103D3000310509F47FC608F0C8C02B34310509F4F9
:103D4000F7C208F06DC02831310509F47EC2E8F5EC
:103D50002231310509F4CAC5D8F42230310508F4FE
:103D6000B3C12131310511F00C946C2E60E088EE66
:103D700092E00E9426825F988A989FB7F89480917B
:103D800008018E7F809308019FBF12980C946C2EBF
:103D90002531310509F44FC240F42431310511F0C9
:103DA0000C946C2EE0E0F3E003C22631310509F4F7
:103DB00046C22731310511F00C946C2E40E061E0D1
:103DC000C8010E941EA10C946C2E2E31310509F4FD
:103DD00095C298F42A31310509F446C208F43BC271
:103DE0002B31310509F44EC22C31310511F00C9400
:103DF0006C2E0E9498C00C946C2E2032310509F470
:103E000081C208F48DC22A32310509F48DC22033F3
:103E1000310511F00C946C2E0E94C0CA0C946C2ECB
:103E20002936310509F496C340F52335310509F4E7
:103E300058C598F42D34310509F49CC208F47CC2AD
:103E40002135310509F434C52235310511F00C94C2
:103E50006C2E1092BC040C946C2E2535310509F49F
:103E600049C508F443C52C35310509F456C5283633
:103E7000310509F48FC20C946C2E2E36310509F4ED
:103E8000CBC280F42B36310509F40EC508F408C501
:103E90002C36310509F43FC32D36310509F474C3BE
:103EA0000C946C2E2037310509F439C308F4C7C2CD
:103EB0002237310509F4BAC52337310511F00C94C6
:103EC0006C2E0E94ACC70C946C2E2E3241E034074D
:103ED00011F40C94D42908F06BC02B3C310509F483
:103EE00018C798F52C38310509F41DC380F428371C
:103EF000310509F427C62937310509F42AC62737C1
:103F0000310511F00C946C2EE3EEF3E099C52E3BD5
:103F1000310509F4C1C430F42139310509F41FC653
:103F20000C946C2E283C310509F490C6293C3105CF
:103F300011F00C946C2E6FE0E62E69E0F62E0DEF7A
:103F400012E074E0D72ED00ECCC62C3D310511F412
:103F50000C94CA2898F42D3C310509F461C708F483
:103F6000F5C62E3C310509F4C6C7233D310511F0D5
:103F70000C946C2EE1E4F7E10C944428223E3105C8
:103F800011F40C94EE2838F42D3D310511F40C9405
:103F9000D6280C946C2E2C3281E0380711F40C9446
:103FA00017292D32314011F40C943B290C946C2EBE
:103FB000253FA1E03A0711F40C94152E08F044C0F7
:103FC0002239E1E03E0711F40C94B02CF0F42336D2
:103FD00041E0340711F40C94232E38F42F32314091
:103FE00011F40C94412A0C946C2E203991E039077D
:103FF00011F40C94AD2C2139314011F00C946C2E3D
:1040000081E00E94D7990C946C2E243AB1E03B07D2
:1040100011F40C94B42C48F42A39314011F00C946A
:104020006C2E0E9483C70C946C2E2C3A41E034070E
:1040300011F40C941A2D243F314011F00C946C2E85
:104040000E94FE370C946C2E233583E0380711F460
:104050000C94202EE8F4273FA1E03A0711F40C94C9
:104060001D2E10F40C941A2E2939E2E03E0709F4B3
:1040700089C72A39324011F00C946C2E15E4E12ED8
:1040800015E1F12E0DEF12E083E0D82ED00EEDC732
:10409000283743E0340711F40C943A2E48F42935BC
:1040A000334011F00C946C2E0E9437C60C946C2E89
:1040B000203A93E0390709F429C1273E334011F42F
:1040C0000C943F2E0C946C2E80E50E94C030882307
:1040D00061F00E9452316B017C01BB24B394672BC9
:1040E000682B692B31F4B12C04C0B12CC12CD12C1C
:1040F000760183E50E94C030882399F00E948631C2
:104100006B017C01B1100FC0672B682B692B59F430
:10411000F8018081882339F061E0C8010E943B8268
:1041200007C0BB20A9F360E087ED92E00E942682E1
:1041300081E0809396060E9479B00E949D32C1145E
:10414000D104E104F104E9F08091A2069091A30664
:10415000A091A406B091A506C80ED91EEA1EFB1EAA
:104160000E94847DDC01CB018C199D09AE09BF0939
:10417000B7FF1AC0809196068823B1F00E949B5623
:10418000EFCF80919606882319F00E949B56F9CFB5
:104190008091300C60E0882319F088EC92E002C036
:1041A00088EB92E00E942682109296060C946C2E68
:1041B00084918F010F5F1F4F882321F00E94A83246
:1041C000F801F6CF1092B60E1092B50E40E050E016
:1041D000BA0181E69CE00E94D6738BE1E1E6FCE047
:1041E000DE01159601900D928A95E1F780915F0CA2
:1041F0009091600C9C838B838FED93E09A838983ED
:1042000040E050E0BE016F5F7F4F83EB94E00E947F
:10421000E99ECE0101960E944056E1EFF2E08491C2
:104220008F010F5F1F4F882311F40C946C2E0E9496
:10423000A832F801F4CF0E94D0A80C946C2E1092F2
:10424000300C1092310C0C946C2E0E94CB9E0E946C
:104250008AAA0C946C2E81E0809374088093940B4E
:104260001092300C0C946C2E8091310C882311F438
:104270000C946C2E83E50E94C03081110C946F2E3B
:104280000C946C2E8091310C882351F1E1E1F3E024
:1042900084918F010F5F1F4F882321F00E94A83265
:1042A000F801F6CF6091AC0E7091AD0E8091AE0E1C
:1042B0009091AF0E4AE00E94D5328FE20E94A83260
:1042C0006091A80E7091A90E8091AA0E9091AB0EEC
:1042D0004AE00E94D5328AE00E94A8320C946C2EEB
:1042E000E3E2F3E084918F010F5F1F4F882311F405
:1042F0000C946C2E0E94A832F801F4CF0E9459BF92
:104300000C946C2E0E9414BE0C946C2E81E0809351
:104310002F0C40E060E0C8010E941EA10C946C2E9E
:104320000E946ABE0C946C2E0E94BABD0C946C2E36
:104330000E948AAA0C946C2E80917508843010F02B
:104340000C946C2E8091C10491E0980F9093C1045D
:10435000913061F4909374089093940B8E5F8093E6
:10436000C1040E94A8328AE00E94A8321092740808
:104370000C946C2EE4E3F3E084918F010F5F1F4FE8
:10438000882321F00E94A832F801F6CF0E94D1A71D
:104390000C946C2E88E690E00E94633681110C9498
:1043A0006C2E8091E41383FF02C00C946C2E83E585
:1043B0000E94C030882361F10E945D310E94BBE6FB
:1043C00070938108609380080E945D3120E030E0A6
:1043D0004AEA52E40E945FED18163CF00E94D1A711
:1043E00060E084E593E00E9426820E945D31209186
:1043F0009E0830919F084091A0085091A1080E940A
:10440000A6E718162CF460E089E493E00E94268267
:104410000E94BFDF0C946C2E8EE40E94C030882373
:1044200011F40C946C2E0E9447316093D715709351
:10443000D8158093D9159093DA150C946C2E83E5DA
:104440000E94C030882319F00E94D33001C080E060
:104450008093E413E1E4F7E184918F010F5F1F4F34
:10446000882321F00E94A832F801F6CFE2E7F3E0BA
:1044700084918F010F5F1F4F882321F00E94A83283
:10448000F801F6CF8091E4138823A1F144E6C42E0D
:1044900043E0D42EE12CF12C20E08091E41390E055
:1044A0000E2C02C0959587950A94E2F780FF17C0FD
:1044B000BB24B394B20E222319F08CE20E94A832DE
:1044C000F60125913491F901849189010F5F1F4F05
:1044D000882321F00E94A8329801F5CF2B2DFFEF01
:1044E000EF1AFF0A32E0C30ED11C45E0E416F104D6
:1044F000A1F60CC0EEE6F3E084918F010F5F1F4F31
:10450000882321F00E94A832F801F6CF8AE00E94A9
:10451000A8320C946C2E10921C020C946C2E89E71D
:1045200093E00E9459568091E41383FF02C00C94DB
:104530006C2E83E50E94C030882311F40C946C2EFD
:104540000E945D310E94BBE670937F0860937E08F5
:104550000C946C2E89E690E00E94633681110C94D5
:104560002E30E2E8F3E084918F010F5F1F4F882324
:1045700021F00E94A832F801F6CF0E94A0C88AE07C
:104580000E94A8320C942E308DE690E00E94633693
:1045900081110C946C2E8091E41383FF02C00C9463
:1045A0006C2E83E50E94C0308AAB811105C082E584
:1045B0000E94C0308823B1F10E945D310E94BBE6A9
:1045C00070938108609380080E945D3120E030E0A4
:1045D0004AEA52E40E945FED181614F40C947F2E00
:1045E0000E94D1A760E085EA93E00E942682609154
:1045F000800870918108072E000C880B990B0E948F
:1046000065ED20919E0830919F084091A00850913F
:10461000A1080E94A6E718162CF460E08AE993E04E
:104620000E9426820E94BFDF81E080931C021EAAA6
:104630001FAA18AE19AE1EA61FA618AA19AA1AA656
:104640001EAE5CE35AAF8CE123968FAF239796E4BE
:1046500028969FAF2897C12CD12C20E8E22E3FEB63
:10466000F32E812C912C5401609180087091810867
:10467000072E000C880B990B0E9465ED162F072F53
:10468000782E692E262F372F482F592FB601C701B4
:104690000E945FED882321F120919E0830919F08B0
:1046A0004091A0085091A108612F702F872D962D61
:1046B0000E945FED881F8827881F8AA7AAA9AA23BE
:1046C00099F0882389F080911C02882311F40C94BE
:1046D0006C2E60E085E893E00E9426820C946C2E9C
:1046E0001C2D0D2D7E2C6F2C0E94847D6B017C0176
:1046F000DC01CB012EA53FA548A959A9821B930B2C
:10470000A40BB50BB7FD45C0D701C60188519C4F1E
:10471000AF4FBF4F8EA79FA7A8ABB9AB0E94A0C851
:10472000E6E9F3E084912F019FEF491A590A8823A3
:1047300021F00E94A832F201F5CF81149104A10466
:10474000B104D1F0D501C401805F984DAF4FBF4F88
:10475000BC01CD016C197D098E099F0928EE33E05B
:1047600040E050E00E943AF1CA01B9010E9456337C
:104770008AE00E94A8320DC0E3E9F3E084912F01A2
:10478000AFEF4A1A5A0A882321F00E94A832F20198
:10479000F5CF0E949B560E949D3220909E0830903B
:1047A0009F084090A0085090A1089101A201612F9C
:1047B000702F872D962D0E945DE59F7781149104BF
:1047C000A104B10449F420E030E040E85FE30E9436
:1047D0005FED87FF0BC008C020E030E040E450E40C
:1047E0000E94A6E7181614F446015701BAA5BB2388
:1047F000B9F12EA93FA948AD59AD211531054105A3
:10480000510541F0D701C601821B930BA40BB50BD8
:10481000B7FD26C09101A2016EAD7AAD23968FAD92
:10482000239728969FAD28970E945DE520E030E011
:1048300040EC5FE30E945FED87FD45CFD701C601E5
:10484000805A9541AF4FBF4F8EAB9FABA8AFB9AF6A
:104850002EAE3AAE23964FAE239728965FAE28979A
:1048600080911C02882309F42ECF81149104A104A5
:10487000B10429F4C12ED02EE72CF62CF5CE90E110
:10488000C91A97E2D90AE108F108C818D908EA0854
:10489000FB08F7FE18CFEECF0E9428C90C946C2EAF
:1048A0000E947AC80C946C2E0E946BC80C946C2EDB
:1048B0000E94FEB70E9479B00E94485610927D086F
:1048C00010927C0868EE73E080E090E00E944C7DDE
:1048D00060E085EB93E00E9426820E9479520C945E
:1048E0006C2E81E08093BC040C946C2E0E941AC83C
:1048F0000C946C2E83E50E94C030882311F40C9434
:104900006C2E0E9486316093A6067093A706809352
:10491000A8069093A9060C946C2E8DEFC82E82E009
:10492000D82E97EFE92E98E0F92E10E0D6018D9160
:104930006D010E94C030882309F46DC0133009F066
:1049400063C00E945D314B015C0120E030E040EA31
:1049500051E40E945FED87FF4EC0A5019401609174
:1049600003097091040980910509909106090E943C
:104970004AE62B013C019B01AC0160914309709117
:10498000440980914509909146090E94C4ED6093C5
:104990004309709344098093450990934609A30104
:1049A0009201609133097091340980913509909199
:1049B00036090E94C4ED60933309709334098093E3
:1049C00035099093360960915C0970915D09809179
:1049D0005E0990915F090E9463EDA30192010E941C
:1049E000C4ED0E94C1E660935C0970935D098093F9
:1049F0005E0990935F098092030990920409A09246
:104A00000509B092060907C00E945D31F701608375
:104A10007183828393831F5FF4E0EF0EF11C1430E7
:104A200009F084CF0E94E0880C946C2E0E94BCC7D1
:104A30000C946C2E60E0C8010E943B820C946C2E9A
:104A400084918F010F5F1F4F882321F00E94A832AD
:104A5000F801F6CFEBEDF3E084918F010F5F1F4F6C
:104A6000882321F00E94A832F801F6CF649903C090
:104A70000BE114E002C000E214E0D8018D918D0139
:104A8000882319F00E94A832F8CF8AE00E94A83249
:104A9000E3EDF3E084918F010F5F1F4F882321F036
:104AA0000E94A832F801F6CF8091030180FD03C077
:104AB0000BE114E002C000E214E0F80181918F01E3
:104AC000882319F00E94A832F8CF8AE00E94A83209
:104AD000EBECF3E084918F010F5F1F4F882321F0EF
:104AE0000E94A832F801F6CF4B9B03C00BE114E003
:104AF00002C000E214E0D8018D918D01882319F0E5
:104B00000E94A832F8CF8AE00E94A832E3ECF3E0DA
:104B100084918F010F5F1F4F882321F00E94A832DC
:104B2000F801F6CF4A9903C00BE114E002C000E29D
:104B300014E0F80181918F01882309F4E7CC0E94E9
:104B4000A832F7CF81E080932902809343150C941B
:104B50006C2E10922902109243150C946C2E83E552
:104B60000E94C0308823F9F00E943A31182F823019
:104B7000D8F0EAEFF5E184918F010F5F1F4F882392
:104B800021F00E94A832F801F6CFEDEFF3E0849116
:104B90008F010F5F1F4F882311F40C946C2E0E941D
:104BA000A832F801F4CF10E088E40E94C0308823D6
:104BB000B1F00E943A31E12FF0E08A3A91053CF0E1
:104BC000853021E092072CF084E091E002C08AEA6F
:104BD00090E0EE0FFF1FEA57F74F9183808386E442
:104BE0000E94C0308823A1F00E943A31E12FF0E00A
:104BF000EE0FFF1FE657F74F8F3F910519F014F0A6
:104C00008FEF90E097FF02C080E090E09183808377
:104C100082E40E94C030882311F40C946C2E0E9410
:104C20003A31E12FF0E08530910534F08838910574
:104C30002CF087E890E002C085E090E0EE0FFF1FC7
:104C4000EE57F74F918380830C946C2E88EC90E0A4
:104C50000E94633681110C946C2E84E40E94C03053
:104C6000882311F40C946C2E0E945D3111E020E039
:104C700030E0A9010E945FED811101C010E01093A6
:104C80004B09112359F10091B80410E00E945D31E5
:104C9000000F111F000F111FF801E85BFD4F60832B
:104CA00071838283938320E030E0A9016091480200
:104CB0007091490280914A0290914B020E945FEDEF
:104CC00081110CC080E090E0A0E4B0E48093480241
:104CD00090934902A0934A02B0934B020E94E3547E
:104CE000FBC7D8018D918D010E94C030882349F007
:104CF0000E945D310E94C1E6F70160837183828367
:104D00009383F4E0EF0EF11CD012EBCF0E94768873
:104D1000E3C747E2E42E49E0F42E0DEF12E054E041
:104D2000D52ED00ED8018D918D010E94C0308823E0
:104D300039F00E945D31F701608371838283938330
:104D4000F4E0EF0EF11CD012EDCFC6C783E50E9450
:104D5000C0308823D9F00E945D31AB01BC01409383
:104D60004709509348096093490970934A09409351
:104D70000709509308096093090970930A0989E7A4
:104D800094E00E9427378AE00E94A83280E50E94C2
:104D9000C030882399F00E945D31AB01BC01409383
:104DA0004709509348096093490970934A098CE573
:104DB00094E00E9427378AE00E94A83282E50E9490
:104DC000C030882399F00E945D31AB01BC01409353
:104DD0000B0950930C0960930D0970930E098DE334
:104DE00094E00E9427378AE00E94A83284E50E945E
:104DF000C030882309F470C70E945D31AB01BC014B
:104E000040930709509308096093090970930A09B0
:104E10008FE194E00E9427378AE00E94A8325CC7A5
:104E200083E50E94C030882351F00E945D31609379
:104E3000230970932409809325099093260984E51A
:104E40000E94C030882351F00E945D3160931F0999
:104E500070932009809321099093220982E40E9493
:104E6000C030882351F00E945231609351157093E5
:104E70005215809353159093541588E50E94C030C5
:104E8000882351F00E945D3160933709709338098F
:104E90008093390990933A0989E50E94C0308823AC
:104EA00051F00E945D3160933B0970933C098093FF
:104EB0003D0990933E098AE50E94C030882351F055
:104EC0000E945D3160933F097093400980934109CE
:104ED0009093420985E40E94C030882309F4FCC6FF
:104EE0000E945D31609343097093440980934509A2
:104EF00090934609F1C69DEFA92E92E0B92E2FEFAF
:104F0000C22E2EE0D22E32EEE32E3EE0F32E00E053
:104F100010E0D5018D915D010E94C030882311F110
:104F20000E945D312B013C01F701208131814281DA
:104F300053810E945DE59B01AC01D6016D917D918D
:104F40008D919C910E945EE5F6016083718382835E
:104F50009383D7014D925D926D927C921397C80115
:104F60000E94CD9B0F5F1F4FB4E0CB0ED11CE4E03D
:104F7000EE0EF11C0330110561F60E940E320E9404
:104F8000BCC7AAC68CE40E94C030882351F00E949E
:104F90005D3160939502709396028093970290938F
:104FA000980282E50E94C030882351F00E945D3152
:104FB0006093990270939A0280939B0290939C0253
:104FC00083E50E94C030882351F00E945D316093D8
:104FD000EF027093F0028093F1029093F20281E469
:104FE0000E94C030882351F00E945D316093EA0B2B
:104FF0007093EB0B8093EC0B9093ED0B82E40E948B
:10500000C030882351F00E945D316093E20B7093B1
:10501000E30B8093E40B9093E50B83E40E94C03094
:10502000882351F00E945D316093DA0B7093DB0BA3
:105030008093DC0B9093DD0B2091950230919602CA
:1050400040919702509198026091990270919A0252
:1050500080919B0290919C020E94F55D3DC6F4E018
:10506000EF0EF11CD01609F437C6D8018D918D01D1
:105070000E94C030882399F30E945D31F70160835C
:10508000718382839383EBCF84918F010F5F1F4FD6
:10509000882321F00E94A832F801F6CFE5ECF4E075
:1050A00084918F010F5F1F4F882321F00E94A83247
:1050B000F801F6CFE1ECF4E084918F010F5F1F4F10
:1050C000882321F00E94A832F801F6CFE9EBF4E042
:1050D00084918F010F5F1F4F882321F00E94A83217
:1050E000F801F6CF40911002509111026091120226
:1050F0007091130287EB94E00E94273740911402CD
:1051000050911502609116027091170284EB94E0A1
:105110000E942737409118025091190260911A029B
:1051200070911B0281EB94E00E942737E9EAF4E0DA
:1051300084918F010F5F1F4F882321F00E94A832B6
:10514000F801F6CF409104025091050260910602E9
:105150007091070287EA94E00E9427374091080285
:105160005091090260910A0270910B0284EA94E066
:105170000E94273740910C0250910D0260910E025F
:1051800070910F0281EA94E00E9427378AE00E9422
:10519000A832A2C583E5F4D7882309F49DC50E94EF
:1051A0003A319093A1028093A00296C58DED90E0D4
:1051B0000E946336811190C583E5E2D7882309F404
:1051C0008BC50091B80410E00E943A31000F111F06
:1051D000F801EE5BFD4F918380837EC580E5D0D7DB
:1051E000882309F479C50E943A318C0183E5C8D738
:1051F000882321F00E943A317C0103C0EE24EA9416
:10520000FE2CC7010196039708F066C517FD64C51B
:10521000E1E0F3E0C801992721913191281739077E
:1052200009F45AC523E0E135F207B1F7EFC683E58B
:10523000A7D7882319F00E942D3102C084E091E0A5
:1052400099A388A380E59CD7882349F00E942D313B
:10525000893833E1930728F088E893E102C088EEAB
:1052600093E09A838983BE01605E7F4FCE010196F1
:105270000E9417AA31C585E483D781110FC080E54C
:105280007FD7882391F00E945D3160932A0270934A
:105290002B0280932C0290932D0207C0EBD7181697
:1052A00019066CF7EAEFF5E16EC089E469D7882347
:1052B00081F00E945D312CE933E549E45EE30E9410
:1052C000C4ED609332027093330280933402909362
:1052D000350284E455D7882379F0EFD72CE933E5FC
:1052E00049E45EE30E944AE660932E0270932F0227
:1052F0008093300290933102E1E4F7E184918F01D1
:105300000F5F1F4F882321F00E94A832F801F6CFCB
:1053100040912A0250912B0260912C0270912D0233
:105320008DED94E00E9427372CE933E549E45EE3F4
:105330006091320270913302809134029091350273
:105340000E944AE6AB01BC0189ED94E00E940C3753
:105350002CE933E549E45EE360912E0270912F025F
:1053600080913002909131020E94C4EDAB01BC01EA
:1053700085ED94E00E940C378AE00E94A832ACC40C
:105380000E94A832F80184918F010F5F1F4F811195
:10539000F7CF06E314E0D8018D918D01882309F43D
:1053A000B5C80E94A832F7CF83E5EAD6082F882334
:1053B00099F083D760934C0270934D0280934E0214
:1053C00090934F0211E020E030E0A9010E945FEDD0
:1053D000811110E010934F0980E5D2D6182F882351
:1053E000A1F020E030E0A90160914C0270914D02E3
:1053F00080914E0290914F020E945FED882311F040
:1054000001D7182F10934F0967C4011165C4E1E457
:10541000F7E184918F010F5F1F4F882321F00E94D5
:10542000A832F801F6CF80914F09811103C06AE2DA
:1054300074E002C06DE174E086EF94E00E94AF3248
:1054400020E030E040E05FE360914C0270914D025B
:1054500080914E0290914F020E945EE50E94BBE651
:1054600085EE94E00E944C36E1EEF4E084918F01E9
:105470000F5F1F4F882309F42FC40E94A832F80140
:10548000F5CF85E47DD6882319F0F4D67C0102C0DF
:10549000E12CF12C83E474D6882331F0EBD6AA9664
:1054A0009FAF8EAFAA9706C0E5E0F0E0AA96FFAFE7
:1054B000EEAFAA9785E564D6882329F0A3D6AB96EC
:1054C0008FAFAB9703C0AB961FAEAB9783E558D6B3
:1054D000882331F0F2D66AAB7EA78EAF9AAF08C0B0
:1054E0001AAA1EA6F7FC0AC0F6E1FEAF23E42AAF13
:1054F000E114F10439F41092B80404C03CE83EAF62
:1055000042E44AAF0E94847D4B015C01EF2819F40C
:1055100007E414E00CC00AE514E0D8018D918D0178
:10552000882311F40C9486220E94A832F6CFF80149
:1055300081918F01882319F00E94A832F8CF8AE068
:105540000E94A8320E94FEB78FE78093E71381E0A4
:1055500080931C02A4968CAE9DAEAEAEBFAEA49757
:10556000AF968CAE9DAEAEAEBFAEAF9728961FAED7
:105570002897F0E42796FFAF27972CE12C962FAFC2
:105580002C9736E460963FAF609761961FAE6197A7
:1055900065961FAE659766961FAE669767961FAEB7
:1055A00067976F961CAE1DAE1EAE1FAE6F976B96C3
:1055B0001CAE1DAE1EAE1FAE6B97C12CD12C76015A
:1055C000FFE74F2E512C612C712C8FE790E0A0E06B
:1055D000B0E08EAB9FABA8AFB9AFA8961CAE1DAE26
:1055E0001EAE1FAEA89791E0A0969FAFA0972496FD
:1055F0001FAE1EAE249710E000E0312C212C8091CC
:105600001C02882309F4A2C10E94847D6AA77BA79B
:105610008CA79DA78091E513882309F4B9C00E9447
:10562000C8BA10919E0800919F083090A008209061
:10563000A108212F302F432D522D61966FAD619718
:1056400065967FAD659766968FAD669767969FADB9
:1056500067970E945FED87FF0CC061961FAF61974F
:1056600065960FAF659766963FAE669767962FAEC5
:105670006797212F302F432D522D28966FAD2897F5
:1056800027967FAD27972C968FAD2C9760969FAD70
:1056900060970E94A6E7181664F428961FAF289713
:1056A00027960FAF27972C963FAE2C9760962FAE7C
:1056B0006097A096AFADA0972AA93EA54EAD5AAD72
:1056C000612F702F832D922DAA2309F447C00E94C9
:1056D000A6E718160CF05CC04AA55BA56CA57DA5D5
:1056E000481959096A097B09DB01CA0188589341A5
:1056F000A109B109B7FD4CC08EA99FA9A8ADB9AD4C
:1057000084199509A609B709B595A7959795879521
:105710008093E713A8964CAF5DAF6EAF7FAFA897AD
:10572000BAA96196BFAF6197EEA56596EFAF659791
:10573000FEAD6696FFAF66972AAD67962FAF679767
:105740008AA59BA5ACA5BDA5A4968CAF9DAFAEAF19
:10575000BFAFA497A0961FAEA0971AC00E945FED9E
:1057600087FF16C08AA59BA5ACA5BDA5A4962CADA8
:105770003DAD4EAD5FADA497821B930BA40BB50B53
:10578000AC01BD01485853416109710977FFBBC2A3
:1057900020E030E040EA51E46AA97EA58EAD9AADE2
:1057A0000E945EE59B01AC01612F702F832D922D2D
:1057B0000E94A6E7181664F4E3ECF5E084918F01EB
:1057C0000F5F1F4F882309F487C2C2D6F801F6CFB6
:1057D00080E398EFAFEFBFEFAF962CAD3DAD4EAD90
:1057E0005FADAF97821B930BA40BB50B2AA53BA50E
:1057F0004CA55DA5820F931FA41FB51FB7FD0EC05A
:105800000E94A0C88AE0A4D68AA59BA5ACA5BDA588
:10581000AF968CAF9DAFAEAFBFAFAF978AA59BA53C
:10582000ACA5BDA5880F991FAA1FBB1FA4962CADC0
:105830003DAD4EAD5FADA497821B930BA40BB50B92
:1058400088199909AA09BB0981389F44A241B10569
:1058500060F0E5EAF5E084918F010F5F1F4F882328
:1058600009F43AC275D6F801F6CF24964EAD5FAD75
:105870002497AA968EAD9FADAA97841795070CF032
:1058800062C0E8E4F5E084918F010F5F1F4F882329
:1058900019F05ED6F801F7CFB701A60183E395E0D2
:1058A0000E9427378AE054D66B964CAD5DAD6EAD45
:1058B0007FAD6B978EE195E00E9427378AE048D64E
:1058C0006F964CAD5DAD6EAD7FAD6F9789E095E0A5
:1058D0000E9427378AE03CD6AB969FADAB979923C1
:1058E00009F4FAC1C0922A02D0922B02E0922C0253
:1058F000F0922D022CE933E549E45EE36B966CAD42
:105900007DAD8EAD9FAD6B970E94C4ED609332026A
:105910007093330280933402909335022CE933E57F
:1059200049E45EE36F966CAD7DAD8EAD9FAD6F9734
:105930000E944AE660932E0270932F0280933002F9
:1059400090933102C9C10E94795259CE80911C02B4
:105950008111C2C10E94FEB7BFC10E9479B0BCC113
:1059600080E00E94D799B8C183E50AD4882379F0F2
:1059700049D4182F0E94E6A5811110E080912E05D0
:10598000811101C010E0812F0E94AC9701C010E08E
:10599000F0904E09111103C0E1E4F7E118C0F110D5
:1059A000FBCFEAEFF5E184918F010F5F1F4F882352
:1059B00019F0CED5F801F7CFE4E6F6E084918F0137
:1059C0000F5F1F4F882341F3C3D5F801F7CF8491B0
:1059D0008F010F5F1F4F882319F0BAD5F801F7CF59
:1059E000F11003C062E374E002C06EE274E086E589
:1059F00096E0B5D58AE0ACD586E5C2D3882309F414
:105A00006BC18091770690917806892B39F080914F
:105A10002E05882319F00E9406975EC1E7E3F6E0A1
:105A200084918F010F5F1F4F882309F455C190D5D2
:105A3000F801F6CF8FEF282E8EE0382EA2EEBEE0D2
:105A4000BBA7AAA7E5E9FBE0FFABEEAB00E010E0E7
:105A50002EA93FA925593B403BAB2AABAEA9BFA914
:105A60008D91BFABAEAB882309F4ABC0F801EC5FFE
:105A7000FD4F2081318142815381F801E05FFD4F6C
:105A800060817181828193810E945EE520E030E037
:105A900040E05FE30E94C4ED9B01AC01F101608135
:105AA0007181828193810E94A6E718162CF4C801A7
:105AB0008154994FF2D403C060E070E0CB01D10172
:105AC0004D905D906D907C90EAA5FBA5C080D18043
:105AD000E280F380A70196010E945EE5F801EA5298
